:100000000C945F010C9487010C9487010C94870178
:100010000C9487010C9487010C9487010C94870140
:100020000C9487010C9487010C94AA0D0C94190E62
:100030000C9487010C9487010C9487010C94870120
:100040000C9487010C9487010C9487010C94870110
:100050000C9487010C9487010C9487010C94A310D5
:100060000C9487010C9471100C944B100C94870124
:100070000C9487010C9487010C9487010C948701E0
:100080000C9487010C9487010C9487010C948701D0
:100090000C9487010C9487010C9487010C948701C0
:1000A0000C9487010C9487010C94870100407A100E
:1000B000F35A00A0724E18090010A5D4E80000E819
:1000C0007648170000E40B54020000CA9A3B000077
:1000D00000E1F505000080969800000040420F0006
:1000E0000000A08601000000102700000000E803C7
:1000F000000000006400000000000A000000000092
:100100000100000000002C76D888DC674F0823DF50
:10011000C1DFAE59E1B1B796E5E3E453C63AE65123
:10012000997696E8E6C28426EB898C9B62ED407C4A
:100130006FFCEFBC9C9F40F2BAA56FA5F490055AE6
:100140002AF75C936B6CF9676DC11BFCE0E40D470B
:10015000FEF520E6B500D0ED902E0300943577052E
:100160000080841E080000204E0A000000C80C33E6
:100170003333330F986E12831141EF8D2114893B75
:10018000E65516CFFEE6DB18D1844B381BF77C1DF5
:10019000901DA4BBE424203284725E228100C9F148
:1001A00024ECA1E53D2700000000240027002A00E0
:1001B0002D00300000000000250028002B002E003C
:1001C0003100000000002300260029002C002F0031
:1001D00004040404040304050202020204030202EC
:1001E00002020606060606060404020202040404CD
:1001F0000802011040804010204080408008020426
:10020000018040201002011080102040402000009A
:10021000000200090F0000030401000C00000000B0
:100220000000000000000000000000000072756E79
:100230002D6272696467650A000A000A00070605F4
:10024000040100080A0B0C0D09080B000202020051
:10025000000904000001020200000524001001054D
:10026000240101010424020605240600010705817A
:100270000310004009040100020A00000007050203
:100280000240000007058302400000040309041235
:10029000010002EF020140412341800001010203FD
:1002A0000141726475696E6F204C4C430041726469
:1002B00075696E6F2059756E0000ED106919112473
:1002C0001FBECFEFDAE0DEBFCDBF12E0A0E0B1E0AD
:1002D000E4EFF0E402C005900D92AC30B107D9F71D
:1002E00027E0ACE0B2E001C01D92A338B207E1F70D
:1002F00011E0CEE5D1E004C02197FE010E943A1E34
:10030000CD35D107C9F70E9450110C946D200C9483
:100310000000FC0180917206882311F13FB7F89428
:1003200082E08093E9002091F200822F90E018167D
:10033000190614F481E090E0882339F0289844E607
:10034000409371064091F1004083222339F02091BF
:10035000F200211103C02BE62093E8003FBF08956F
:100360008FEF9FEF08952FB7F89483E08093E90013
:100370009091E800892F807295FF04C09091F2005F
:1003800080E4891B2FBF08958091690681110DC0FB
:1003900082E08093650684E080936606109268068A
:1003A0001092670681E08093690685E696E00895DD
:1003B000CF93DF931F92CDB7DEB76983DC01ED9158
:1003C000FC910280F381E02D41E050E0BE016F5FBF
:1003D0007F4F09950F90DF91CF91089583E080932F
:1003E000E9008091F200882319F08AE38093E80005
:1003F00008950E94B30190E00895CF93DF931F9278
:10040000CDB7DEB7FC018485958597FD08C02FEF39
:100410003FEF358724870F90DF91CF910895CE016C
:1004200001960E948901019719F4898190E0F3CF28
:100430008FEF9FEFF0CF0F931F93CF93DF931F9218
:10044000CDB7DEB78C01FC018485958597FF0BC085
:10045000CE0101960E948901019771F4898190E093
:10046000F80195878487F801848595850F90DF9141
:10047000CF911F910F9108958FEF9FEFF1CFFC0166
:100480008485958597FD0BC09FB7F89482E0809393
:10049000E9008091F2009FBF90E0019608959FB718
:1004A000F89482E08093E9008091F2009FBF90E091
:1004B000089540915F065091600620915D0630914D
:1004C0005E0642175307B4F49091E8009570E1F38B
:1004D0009091E80092FD19C08093F10080915F0631
:1004E0009091600601968F739927892B19F48EEFEE
:1004F0008093E80080915F0690916006019690934A
:10050000600680935F0681E0089580E00895EF9291
:10051000FF920F931F93CF93DF93F82E192FE62EA0
:10052000042F81E0860F880F0E94590283E00E9409
:100530005902CF2DD12FEC0EFD2EF11CCE15DF056B
:10054000B9F007FF13C0FE0184910E945902182FD1
:1005500080E00E945902812321968111EFCFDF9123
:10056000CF911F910F91FF90EF9008958881EDCF6B
:1005700081E0F5CFDF92EF92FF920F931F93CF931D
:10058000DF93D82E8A01EB017B01E40EF51ECE1518
:10059000DF0559F0D7FE12C0FE0184910E94590276
:1005A00021968111F4CF0FEF1FEFC801DF91CF919A
:1005B0001F910F91FF90EF90DF9008958881EECF0B
:1005C0000F931F93CF93DF931F92CDB7DEB782E0D7
:1005D000898342E450E069E472E080E80E94BA0254
:1005E0000E94C401DC0112960D911C9101151105A8
:1005F00089F0D801ED91FC910280F381E02DBE01DC
:100600006F5F7F4FC801099597FD04C0F801008511
:100610001185ECCF89810F90DF91CF911F910F91C0
:100620000895615030F02091F100FC012083019683
:10063000F8CF289884E6809371060895EF92FF9290
:100640000F931F93CF93DF938C017B01D0E0C0E029
:10065000F701EC0FFD1F6491662361F0D801ED9165
:10066000FC910190F081E02DC8010995892B11F0D2
:100670002196EECFCE01DF91CF911F910F91FF9088
:10068000EF900895AF92BF92CF92DF92EF92FF92D8
:100690000F931F93CF93DF936C017B018B01040FAA
:1006A000151FEB015E01AE18BF08C017D10759F046
:1006B0006991D601ED91FC910190F081E02DC60188
:1006C0000995892B79F7C501DF91CF911F910F9182
:1006D000FF90EF90DF90CF90BF90AF900895FC0116
:1006E000538D448D252F30E0842F90E0821B930B97
:1006F000541710F0CF96089501970895FC01918D3D
:10070000828D981761F0A28DAE0FBF2FB11D5D963F
:100710008C91928D9F5F9F73928F90E008958FEFE1
:100720009FEF0895FC01918D828D981731F0828D95
:10073000E80FF11D858D90E008958FEF9FEF0895EC
:10074000FC01918D228D892F90E0805C9F4F821B50
:1007500091098F739927089585EC96E00E94A00374
:1007600021E0892B09F420E0822F089580E090E0B9
:10077000892B29F00E94AC0381110C94000008958C
:10078000FC01A48DA80FB92FB11DA35ABF4F2C9106
:10079000848D90E001968F739927848FA689B789FD
:1007A0002C93A089B1898C9182748C93938D848DC4
:1007B000981306C00288F389E02D80818F7D8083A5
:1007C0000895EF92FF920F931F93CF93DF93EC0165
:1007D00081E0888F9B8D8C8D981319C0E889F989E9
:1007E000808185FF14C09FB7F894EE89FF896083EC
:1007F000E889F9898081827480839FBF81E090E0DD
:10080000DF91CF911F910F91FF90EF900895F62EF9
:100810000B8D10E00F5F1F4F0F731127E02E8C8D93
:100820008E110CC00FB607FCFACFE889F9898081D8
:1008300085FFF5CFCE010E94C003F1CFEB8DEC0F09
:10084000FD2FF11DE35AFF4FF0829FB7F8940B8FF5
:10085000EA89FB8980818062CFCFCF93DF93EC015F
:10086000888D8823B9F0AA89BB89E889F9898C9198
:1008700085FD03C0808186FD0DC00FB607FCF7CF54
:100880008C9185FFF2CF808185FFEDCFCE010E9454
:10089000C003E9CFDF91CF91089581508F3008F0E8
:1008A00047C0E82FF0E0E95AFB4F0C943A1E74045D
:1008B000780466046C0470049804980498047B041B
:1008C0008104850489048F04980493048091800036
:1008D0008F77809380000895809180008F7DF9CF7D
:1008E00080918000877FF5CF84B58F7784BD089590
:1008F00084B58F7DFBCF809190008F77809390009F
:100900000895809190008F7DF9CF80919000877F2E
:10091000F5CF8091C0008F778093C00008958091BB
:10092000C0008F7DF9CF8091C200877F8093C20085
:100930000895CF93DF93282F30E0F901E25FFD4F58
:100940008491F901E151FE4FD491F901E053FE4F3A
:10095000C491CC23A1F081110E944D04EC2FF0E052
:10096000EE0FFF1FEE53FE4FA591B491EC91ED23D6
:1009700081E090E009F480E0DF91CF91089580E07C
:1009800090E0FACF1F93CF93DF93282F30E0F90147
:10099000E25FFD4F8491F901E151FE4FD491F901DD
:1009A000E053FE4FC491CC23A9F0162F81110E9471
:1009B0004D04EC2FF0E0EE0FFF1FEC54FE4FA5911D
:1009C000B4918FB7F894EC91111108C0D095DE2343
:1009D000DC938FBFDF91CF911F910895DE2BF8CF6D
:1009E000CF93DF9390E0FC01E151FE4F24918053BF
:1009F0009E4FFC0184918823D1F090E0880F991FCD
:100A0000FC01EA55FE4FA591B491FC01EC54FE4F58
:100A1000C591D49161110EC09FB7F8948C91E22FCB
:100A2000E0958E238C932881E223E8839FBFDF919A
:100A3000CF9108958FB7F894EC91E22BEC938FBF90
:100A4000F6CF3FB7F8948091110290911202A091D5
:100A50001302B091140226B5A89B05C02F3F19F0D0
:100A60000196A11DB11D3FBFBA2FA92F982F88272E
:100A7000BC01CD01620F711D811D911D42E0660F09
:100A8000771F881F991F4A95D1F708958F929F92DB
:100A9000AF92BF92CF92DF92EF92FF926B017C01F7
:100AA0000E9421054B015C01C114D104E104F10451
:100AB000B9F00E942105681979098A099B09683EE5
:100AC00073408105910580F321E0C21AD108E10845
:100AD000F10888EE880E83E0981EA11CB11CE4CFBB
:100AE000FF90EF90DF90CF90BF90AF909F908F904E
:100AF00008958F929F92AF92BF92CF92DF92EF9222
:100B0000FF920F931F93CF93DF936C017B018A01B8
:100B100080910B01882309F45CC0809172068823C0
:100B200009F457C08091640680FF05C08091E00001
:100B300082608093E000E801B12C8AEFA82E93E058
:100B4000892E2AE3922E209711F4BB20D9F10E941E
:100B5000B30181110AC0AA94AA20D9F161E070E022
:100B600080E090E00E944605EECF8C171D0611F044
:100B70000CF08C2F9FB7F8948092E9002091E80048
:100B800025FD02C09FBFDFCF282F30E0C21BD30B53
:100B9000F701815020F041914093F100FACFE20E2D
:100BA000F31EBB2021F09092E800B12CEBCF809196
:100BB000E80085FDE7CF9092E800BB24B39420972E
:100BC00009F3F3CF5D9884E680936306101611064F
:100BD0003CF081E090E0F6019383828310E000E036
:100BE000C801DF91CF911F910F91FF90EF90DF909F
:100BF000CF90BF90AF909F908F9008952FB7F894AB
:100C000060910D0270910E0280910F02909110027E
:100C10002FBF08950895CF93DF931F92CDB7DEB70E
:100C20006983DC01ED91FC910280F381E02D41E0CC
:100C300050E0BE016F5F7F4F09950F90DF91CF911C
:100C40000895CF93DF93EC018D819E81DC01ED91BE
:100C5000FC910084F185E02D09951816190654F4CD
:100C60008D819E81DC01ED91FC910284F385E02D64
:100C70000995EACFDF91CF9108958F929F92AF921D
:100C8000BF92CF92DF92EF92FF92CF93DF93EC016E
:100C90006B010E94FE054B015C01F12CE12C8D8162
:100CA0009E81DC01ED91FC910284F385E02D099594
:100CB00097FF0DC00E94FE05681979098A099B09F2
:100CC0006C157D058E059F0550F38FEF9FEFDF912B
:100CD000CF91FF90EF90DF90CF90BF90AF909F901B
:100CE0008F900895FC01238134812627022E2295BE
:100CF000207F2025032E322F22952F700226269545
:100D000032272327220F220F220F2025348323830B
:100D100008952F923F924F925F926F927F928F929F
:100D20009F92AF92BF92CF92DF92EF92FF920F937A
:100D30001F93CF93DF93CDB7DEB72A970FB6F89402
:100D4000DEBF0FBECDBF9A8789875B0129013701BE
:100D50001A01200E311E3A82198288248A94982C16
:100D60009A01260F371F3E832D83C801840D951DE0
:100D700098878F83A985BA8518968C91B981B81701
:100D800008F040C1E985FA85948283828581968145
:100D9000DC01ED91FC910190F081E02D6FEF099560
:100DA0006FEF89859A850E947206E985FA858581AB
:100DB0009681DC01ED91FC910190F081E02DA985F7
:100DC000BA856C910995E985FA856081CF010E9409
:100DD0007206A985BA8515968D919C91DC01ED91DD
:100DE000FC910190F081E02D6A8109956A818985E5
:100DF0009A850E947206E985FA8585819681DC01D3
:100E0000ED91FC910190F081E02D622D0995622D0C
:100E100089859A850E9472068501E985FA85858112
:100E20009681D8016D918D01DC01ED91FC910190CD
:100E3000F081E02D0995F8013197608189859A85C7
:100E40000E947206ED81FE810E171F0731F78201A5
:100E5000A985BA8515968D919C91DC01ED91FC9147
:100E60000190F081E02D2F8138852017310761F046
:100E7000D8016D918D010995F801319760818985BF
:100E80009A850E947206E4CFA985BA8514966C9162
:100E90000995E985FA8585819681DC01ED91FC91C2
:100EA0000190F081E02DA985BA8513966C91099582
:100EB00068EC70E089859A850E943D068F3F910518
:100EC00009F092C0E985FA85948283826FEFCF01A1
:100ED0000E94720665E070E089859A850E943D0651
:100EE000A985BA856C916817190609F07DC0CD01F6
:100EF0000E9472066AE070E089859A850E943D062C
:100F00007C0197FD71C0682F89859A850E947206C1
:100F10006AE070E089859A850E943D068C0197FD04
:100F200063C0682F89859A850E947206EC821B82B5
:100F3000EB81FC810E0F1F1FF12CE12C65E070E0AE
:100F400089859A850E151F05A1F0EC14FD0489F022
:100F50000E943D0697FD09C0F301EE0DFF1D808341
:100F6000682F89859A850E947206FFEFEF1AFF0AA3
:100F7000E5CF0E943D067C0197FD36C065E070E03C
:100F800089859A850E943D0697FD2EC0FE2CEE2491
:100F90008E0D9F1DA985BA8513962D913C911497AE
:100FA0008217930709F58C918F5F8C93C801C01647
:100FB000D10608F4C6012A960FB6F894DEBF0FBE1C
:100FC000CDBFDF91CF911F910F91FF90EF90DF90F8
:100FD000CF90BF90AF909F908F907F906F905F90D9
:100FE0004F903F902F900895B981BF5FB98364E619
:100FF00070E080E090E00E94460589859A850E9415
:101000002106B8CE8FEF9FEFD6CFAF92BF92CF928F
:10101000DF92EF92FF920F931F93CF93DF9300D055
:101020001F92CDB7DEB79B015A01FC01E85AFF4F72
:1010300040814F3F81F147E64983319640814A83A1
:10104000805B9F4FCC24C394D12CAE014D5F5F4F8A
:101050007A01850142E050E0BE016F5F7F4FFC01E5
:10106000808191810E9489068B81882329F0A82E96
:10107000B12CB194A194B108C5010F900F900F90BD
:10108000DF91CF911F910F91FF90EF90DF90CF9064
:10109000BF90AF9008958FEF9FEFEFCFCF92DF9289
:1010A000EF92FF920F931F936801790110E000E027
:1010B00030E020E00E9489061F910F91FF90EF9091
:1010C000DF90CF900895EF92FF920F931F93CF93ED
:1010D000DF9300D0CDB7DEB77C01FC018189882386
:1010E00089F087E7898386858A8310E000E030E015
:1010F00020E042E050E0BE016F5F7F4F8485958520
:101100000E944E08F701118A0F900F90DF91CF9146
:101110001F910F91FF90EF900895EF92FF920F9320
:101120001F93CF93DF9300D01F92CDB7DEB7FC01A2
:101130002289211118C07C01138A8FE4898380E4FD
:101140008B8386858A839F012C5E3F4F00E410E0ED
:1011500043E050E0BE016F5F7F4F848595850E941C
:101160004E08F701828B0F900F900F90DF91CF9177
:101170001F910F91FF90EF900895CF93DF93EC01B3
:101180000E948D088A8990E0DF91CF910895CF93D6
:10119000DF93EC010E948D088A89882341F08B89B6
:1011A000C80FD11D8C8990E0DF91CF9108958FEF0A
:1011B0009FEFFACFCF93DF93EC010E948D088A89CD
:1011C000882369F081508A8B8B8991E0980F9B8BE3
:1011D000C80FD11D8C8990E0DF91CF9108958FEFDA
:1011E0009FEFFACF0F931F93CF93DF9300D01F92FF
:1011F000CDB7DEB729E42983FC0126852A836B83DA
:1012000010E000E030E020E043E050E0BE016F5F1E
:101210007F4F848595850E944E0881E090E00F9075
:101220000F900F90DF91CF911F910F910895EF9242
:10123000FF920F931F93CF93DF9300D01F92CDB7F0
:10124000DEB77C0128E5E20EF11CF70120812F3F7B
:10125000C9F026E62983319620812A83805B9F4F3F
:1012600001E010E09E012D5F3F4F42E050E0BE01E3
:101270006F5F7F4FFC01808191810E944E088FEF4C
:10128000F70180830F900F900F90DF91CF911F9106
:101290000F91FF90EF900895EF92FF920F931F939D
:1012A000CF93DF9300D01F92CDB7DEB7FC0124852A
:1012B000211121C07C01158687E489838FE38B830C
:1012C000E75AFF4F80818A839701205F3F4F39970C
:1012D00000E410E043E050E0BE016F5F7F4F80818B
:1012E00091810E944E089C01215031092E3F3F4FB1
:1012F00060F0F70114860F900F900F90DF91CF915F
:101300001F910F91FF90EF900895F70195859F5FD2
:10131000958781508487EFCFCF93DF93EC010E94B4
:101320004C098C8590E0DF91CF910895CF93DF93A6
:10133000EC010E944C098C85882341F08D85C80FF3
:10134000D11D888990E0DF91CF9108958FEF9FEFB5
:10135000FACFCF93DF93EC010E944C098C85882350
:1013600069F081508C878D8591E0980F9D87C80F1B
:10137000D11D888990E0DF91CF9108958FEF9FEF85
:10138000FACF90E080E008952F923F924F925F92C3
:101390006F927F928F929F92AF92BF92CF92DF9285
:1013A000EF92FF920F931F93CF93DF936090770795
:1013B000709078076114710409F410C1FC018480F5
:1013C00095808114910409F409C18B017C01FB0112
:1013D000C480D580C818D908C0917307D09174070C
:1013E000C114D104B9F4F70160817181CE010E946A
:1013F0005320EC01009709F4F1C0F801608171817C
:10140000448155810E942220F80184819581C80F72
:10141000D91FE9CFD7FC10C0FC0140805180530197
:10142000CE01B2010E945320009709F44CC0880DF0
:10143000991DAC0CBD1CF5CF5E01F7016081718177
:10144000CE010E9453203C01009739F14C018C1AC7
:101450009D0AA401BE01C5010E942220A80CB91C4E
:10146000F8016081718144815581C5010E9422206B
:10147000F80184819581A80EB91EF701C481D58138
:10148000C60DD71D80917707909178078C0D9D1D13
:101490009093780780937707D0CFBE01C501DF9185
:1014A000CF911F910F91FF90EF90DF90CF90BF9061
:1014B000AF909F908F907F906F905F904F903F90F4
:1014C0002F900C943D206A147B0409F487C080910E
:1014D0007507909176078A159B0588F4B5016F5FB3
:1014E0007F4FCE010E94651F009709F477C090934B
:1014F000740780937307B0927607A0927507C09126
:101500007707D09178072197D7FD68C04E01F70182
:10151000448055804114510409F460C0A0907707BD
:10152000B0907807A114B10409F458C0A414B5040C
:1015300008F454C0CA15DB0520F04501F1E08F1A0C
:1015400091086090730770907407C301CFEFDFEFCD
:101550001301280C391C2816390688F0F701608120
:1015600071810E945320009751F09C012619370980
:101570008216930608F49E010196E901ECCFD7FD8F
:101580002DC04C0E5D1EC301840D951DA50144198F
:101590005509BC018C0D9D1D0E942B208091770761
:1015A000909178078C0D9D1D909378078093770715
:1015B0002091730730917407820F931FFC011082F2
:1015C0008091730790917407F80160817181448163
:1015D00055818C0F9D1F0E94222095CFDF91CF91C6
:1015E0001F910F91FF90EF90DF90CF90BF90AF9041
:1015F0009F908F907F906F905F904F903F902F9033
:1016000008950F931F93CF93DF93EC018881998105
:10161000009759F02A813B812617370730F081E087
:10162000DF91CF911F910F9108958B016F5F7F4FD5
:101630000E94651F009759F0998388831B830A8352
:101640002C813D81232B59F7FC011082E8CF80E0EB
:10165000E7CFEF92FF920F931F93CF93DF93611524
:10166000710541F480E0DF91CF911F910F91FF90C0
:10167000EF90089541155105B1F07B01EC010C810B
:101680001D81040F151FB8010E94010B882351F31F
:10169000288139818C819D81B701820F931F0E941F
:1016A0003D201D830C8381E0DECFFB0101900020F3
:1016B000E9F73197AF01461B570B0C94290B42E019
:1016C00050E062E771E00C9405080F931F93CF93ED
:1016D000DF93EC01FB0144815581608171810E949F
:1016E00005088C01CE010E945F0B800F911FDF91D6
:1016F000CF911F910F910895CF93DF93EC018881D3
:101700009981009711F00E94DC1E198218821D82B7
:101710001C821B821A82DF91CF910895EF92FF9273
:101720000F931F93CF93DF93EC017B018A01BA01E2
:101730000E94010B81110BC0CE010E947C0BCE01D7
:10174000DF91CF911F910F91FF90EF9008951D832E
:101750000C83B701888199810E943D20F0CFFB0165
:1017600001900020E9F73197AF01461B570B0C940D
:101770008E0BCF93DF93EC01FB018617970749F09F
:10178000608171816115710541F0448155810E942C
:101790008E0BCE01DF91CF9108950E947C0BF9CF83
:1017A000FC01118210821382128215821482FB01C5
:1017B00001900020E9F73197AF01461B570B0C94BD
:1017C0008E0B6F927F928F929F92AF92BF92CF9229
:1017D000DF92EF92FF920F931F93CF93DF9300D08E
:1017E00000D000D01F92CDB7DEB75C018B01DC01C9
:1017F00013961C921E92129788EE93E0A0E0B0E040
:10180000F50184839583A683B78380E491E0918377
:1018100080833501F0E56F0E711C82E697E0D301FD
:101820008D939C937501B2E5EB0EF11C64E771E0BA
:10183000C7010E94D00B4501E8E58E0E911C82E0A5
:10184000D4018C930115110509F44DC0B801C701ED
:101850000E94AF0B8091160190911701A091180181
:1018600089839A83AB8386E48E83D401EC91EC0F59
:10187000FD2FF11D81818F8381E090E0F501978735
:101880008687EA5AFF4F00811181D7012D913C9143
:1018900082E0C82ED12CFE0134967F0142E050E058
:1018A000BE016A5F7F4FD3018D919C910E94890692
:1018B0008C818823E1F08FEFF401808327960FB6A7
:1018C000F894DEBF0FBECDBFDF91CF911F910F9176
:1018D000FF90EF90DF90CF90BF90AF909F908F9050
:1018E0007F906F900895C7010E947C0BB3CFF501E4
:1018F000E75AFF4F8D818083D5011C961C92DECF65
:10190000FC0180819181009711F00C94DC1E0895F8
:10191000CF93DF93EC0180E491E099838883CE013B
:101920000E941709CE018E5A9F4FDF91CF910C94E0
:10193000800CAF92BF92CF92DF92EF92FF920F9303
:101940001F93CF93DF9300D000D0CDB7DEB75C01FB
:1019500082E58B83D5011F96ED91FC915097048110
:1019600015812081318142E0C42ED12CFE013196B7
:101970007F0141E050E0BE016D5F7F4F1C968D916D
:101980009C910E9489068A81D5011E968C931E9790
:101990001F960D911C910115110531F0C8010E948F
:1019A000800CC8010E94DC1EF501108A178689810F
:1019B000811102C081E0818B32E7F32EF982D501DB
:1019C0001E968C911E978A8301E010E09E012D5F88
:1019D0003F4F42E050E0BE016F5F7F4F1C968D91FC
:1019E0009C910E944E088B81813039F464E670E04E
:1019F00080E090E00E944605E1CF87E58B83F5010A
:101A000086858C8302E010E09E012F5F3F4F42E00D
:101A100050E0BE016D5F7F4F848595850E944E0822
:101A2000898190E0982F88272A81820F911D0F903D
:101A30000F900F900F90DF91CF911F910F91FF901A
:101A4000EF90DF90CF90BF90AF900895EF92FF920C
:101A50000F931F93CF93DF93CDB7DEB7CA55D1094C
:101A60000FB6F894DEBF0FBECDBF1C821B8288EE7E
:101A700093E0A0E0B0E08D839E83AF83B8878EE2D1
:101A8000E82E81E0F82EFA82E98282E697E09E87CE
:101A90008D871A8A1B8A1C8A65E771E0CE018B5AF2
:101AA0009F4F0E94D00BCE0101960E94630886E0F2
:101AB00090E00E94401E8C01FC0111821082138272
:101AC000128215821482BE016B5A7F4F0E94B90B9D
:101AD000198B088BCE018B5A9F4F0E94800C68E7B0
:101AE00071E0CE018B5A9F4F0E94D00B6FE971E0DD
:101AF000888999890E94550B6B964EAD5FAD6B97A7
:101B000067966EAD7FAD6797888999890E94290B8A
:101B1000CE018B5A9F4F0E94800CCE0101960E94ED
:101B2000990C8C01FA82E982CE0101960E94630829
:101B300081E0012B09F080E0C65ADF4F0FB6F89420
:101B4000DEBF0FBECDBFDF91CF911F910F91FF90F0
:101B5000EF9008951F920F920FB60F9211248F935A
:101B60009F938091E1009091E100937F9093E10039
:101B700083FF0FC01092E90091E09093EB00109268
:101B8000EC0092E39093ED001092720698E090932F
:101B9000F00082FF22C093E09093E9009091F20060
:101BA000992319F09AE39093E800909163069923A2
:101BB00041F090916306915090936306911101C09A
:101BC0005D9A90917106992341F090917106915020
:101BD00090937106911101C0289A84FF18C08091DA
:101BE000E2008E7E81608093E2008091E1008F7E32
:101BF0008093E100809164068E7E8061809364060C
:101C00009F918F910F900FBE0F901F90189580FF9E
:101C1000F7CF8091E2008E7E80618093E200809118
:101C2000E1008E7E8093E100809164068E7E81606B
:101C3000E5CF1F920F920FB60F921124CF92DF9231
:101C4000EF92FF920F931F932F933F934F935F93C6
:101C50006F937F938F939F93AF93BF93EF93FF9374
:101C6000CF93DF93CDB7DEB76C97DEBFCDBF1092B9
:101C7000E9008091E80083FF25C068E0CE01459629
:101C80000E94110382EF8093E8008D8987FF39C09D
:101C90009091E80090FFFCCF982F907609F034C126
:101CA0009E894F89588D2F89F88C911131C08038C9
:101CB00061F5809162068093F1001092F1008EEF41
:101CC0008093E8006C960FB6F894DEBF0FBECDBFD0
:101CD000DF91CF91FF91EF91BF91AF919F918F9144
:101CE0007F916F915F914F913F912F911F910F9134
:101CF000FF90EF90DF90CF900F900FBE0F901F904E
:101D000018959EEF9093E800C7CF1092F100D5CFC1
:101D1000913059F48111D3CF4130510581F6809132
:101D200062068D7F80936206CACF933049F4811199
:101D3000C6CF4130510519F6809162068260F2CF1C
:101D4000953041F48091E80080FFFCCF206820931B
:101D5000E300B5CF963009F0A9C00B8D1C8D22E0B1
:101D60001092E9001092600610925F06F2122EC0E7
:101D700010925E0610925D060E94E0021F8299E0BA
:101D80009983FA8291E09E8390EA98879AEF9987E7
:101D900020915F0630916006275F3F4F3C832B8385
:101DA0008D831092E9001092600610925F061093E6
:101DB0005E0600935D0649E050E0BE016F5F7F4F15
:101DC00080E00E94BA020E94E00279CF10935E0682
:101DD00000935D060E94C401DC0112960D911C91D6
:101DE0000115110509F451C1D801ED91FC91048050
:101DF000F581E02DBE016B5E7F4FC801099500970C
:101E000009F03EC1F80100851185EACFF3E0FF1229
:101E10000EC08F89882309F440C0823061F440E805
:101E20006BE08DEA92E00E948702811148CF81E247
:101E30008093EB0047CF813029F440E86BE081EAE2
:101E400092E0F1CF833099F70E94C401DC01129631
:101E5000ED90FC908E010F5F1F4F6801E114F104BB
:101E600079F0D701ED91FC910680F781E02DB80162
:101E7000C7010995080F111DF701E084F184EECF29
:101E8000D8011C92F60101900020E9F73197BF01BB
:101E90006C197D0940E0C601C6CF6BE872E0FB011A
:101EA000449150E080E80E94BA0209CF973009F4CB
:101EB000BECF983021F481E08093F10000CF9930BB
:101EC00009F0FDCE837009F0B2CFE4E2F1E081E0E9
:101ED00031E096E32191222371F08093E900309361
:101EE000EB00DF0111972C912093EC009093ED0013
:101EF0008F5F873079F78EE78093EA001092EA00CF
:101F00008F8980937206DBCE8B8D9C8D1092E900B9
:101F10001092600610925F0690935E0680935D06B5
:101F2000898D811192C08E899D89913A49F48132BF
:101F300009F07DCF47E050E064E071E080E0B3CF8E
:101F4000913209F074CF833269F48F89988DB0E0B3
:101F5000A0E08093000190930101A0930201B0934F
:101F60000301ADCE803269F48091E80082FFFCCF9E
:101F700067E084E091E00E9411038BEF8093E8001A
:101F80009ECE823209F09BCE8F8980930B01EEEFBB
:101F9000FFE7859194918B3F9C4D51F1E0E0F8E093
:101FA0008091040190910501A0910601B091070173
:101FB000803B9440A105B105F1F480910B0180FDB7
:101FC0001AC0EE3F8AE0F80789F587E797E7918323
:101FD0008083809160008093610688E19BE00FB66A
:101FE000F894A895809360000FBE9093600067CE30
:101FF000EEEFFAE0D5CF808191818737974709F0DE
:102000005ECEA89580916000886180936000809189
:10201000610680936000EE3F2AE0F20789F080912C
:10202000FE0A9091FF0A9183808349CE808191813D
:102030008737980751F29093FF0A8093FE0AC5CF25
:102040001092FF0A1092FE0A3ACE0E94C401DC01EF
:1020500012960D911C910115110509F4E8CED801D5
:10206000ED91FC910190F081E02DBE016B5E7F4F00
:10207000C8010995811123CEF80100851185EBCFA8
:10208000181619060CF41BCED2CEF1E0FF12BECE0C
:102090006FE872E004CF1F920F920FB60F921124D7
:1020A0002F933F934F935F936F937F938F939F9360
:1020B000AF93BF93EF93FF9385EC96E00E94C0032C
:1020C000FF91EF91BF91AF919F918F917F916F9110
:1020D0005F914F913F912F910F900FBE0F901F90E6
:1020E00018951F920F920FB60F9211242F938F9372
:1020F0009F93EF93FF93E091D506F091D6068081F0
:10210000E091DB06F091DC0682FD1BC0908180919E
:10211000DE068F5F8F732091DF06821741F0E0911A
:10212000DE06F0E0EB53F94F958F8093DE06FF91CA
:10213000EF919F918F912F910F900FBE0F901F9055
:1021400018958081F4CF1F920F920FB60F92112431
:102150002F933F938F939F93AF93BF9380910D02E3
:1021600090910E02A0910F02B091100230910C02DA
:1021700023E0230F2D3758F50196A11DB11D2093A3
:102180000C0280930D0290930E02A0930F02B09365
:1021900010028091110290911202A0911302B0914D
:1021A00014020196A11DB11D809311029093120299
:1021B000A0931302B0931402BF91AF919F918F919E
:1021C0003F912F910F900FBE0F901F90189526E80A
:1021D000230F0296A11DB11DD2CFE3E7F6E01382D3
:1021E000128288EE93E0A0E0B0E084839583A6831A
:1021F000B78322E531E0318320832FEF3FEF35872E
:102200002487E5ECF6E01382128284839583A6830B
:10221000B78384E691E0918380838DEC90E095878D
:1022200084878CEC90E09787868788EC90E0918B90
:10223000808B89EC90E0938B828B8AEC90E0958B7D
:10224000848B8EEC90E0978B868B118E128E138E82
:10225000148EA2E6B7E0B093C406A093C3061C9206
:102260001696FC93EE93159717961C92179718964F
:102270001C9218971A96FC93EE93199764E771E0F5
:1022800089E797E00E94D00B64E771E083E797E06D
:102290000E94D00B64E771E08DE697E00C94D00BC0
:1022A000CF93DF93CDB7DEB7C05CD1090FB6F894FA
:1022B000DEBF0FBECDBF789484B5826084BD84B587
:1022C000816084BD85B5826085BD85B5816085BD31
:1022D00080916E00816080936E00109281008091E9
:1022E0008100826080938100809181008160809371
:1022F00081008091800081608093800080919100B6
:102300008260809391008091910081608093910020
:10231000809190008160809390008091C1008460E2
:102320008093C1008091C10082608093C100809140
:10233000C10081608093C1008091C300816080935F
:10234000C3008091C00082608093C0008091C20071
:1023500081608093C20080917A00846080937A00CB
:1023600080917A00826080937A0080917A00816007
:1023700080937A0080917A00806880937A0010922E
:10238000720610926206109264068091D7008160F6
:102390008093D70080EA8093D80089B5806189BD99
:1023A00089B5826089BD09B400FEFDCF61E070E0AF
:1023B00080E090E00E9446058091D8008F7C80618B
:1023C0008093D8008091E000807F8093E00080912E
:1023D000E1008E7E8093E1008DE08093E200559ACB
:1023E000209A1092340610923506109236061092FA
:1023F0003706109255061092560610925706109204
:1024000058061092590610925A0610925B061092C6
:102410005C061092490610924A0610924B061092E2
:102420004C061092510610925206109253061092CA
:10243000540610924D0610924E0610924F061092BE
:1024400050061092400610924106109242061092D9
:10245000430684E690E0A0E0B0E0809315029093FC
:102460001602A0931702B093180284EF91E0A0E047
:10247000B0E080933C0690933D06A0933E06B09357
:102480003F068093380690933906A0933A06B0939E
:102490003B068DE993E0A0E0B0E080932C0690939A
:1024A0002D06A0932E06B0932F068BE490E0A0E0BB
:1024B000B0E08093300690933106A0933206B0933B
:1024C000330680E590E0A0E0B0E08093450690936D
:1024D0004606A0934706B09348061092280610922D
:1024E000290610922A0610922B0660E084E00E94D2
:1024F000F00461E084E00E94C20461E088E00E9490
:10250000F00461E087E00E94F00461E082E00E9454
:10251000F00461E08AE00E94F00460E08BE00E9439
:10252000F004E0916B07F0916C07A089B18982E01B
:102530008C93A485B5851C92A685B78587E08C937E
:10254000108EA489B58986E08C93A289B3898C9179
:1025500080618C93A289B3898C9188608C93A289C5
:10256000B3898C9180688C930288F389E02D8081F7
:102570008F7D8083809169078111CEC081E0809337
:10258000690782E697E00E94210668EE73E080E02A
:1025900090E00E9446058091670790916807DC01F2
:1025A000ED91FC910084F185E02D0995181619062E
:1025B00044F3FF24F39422E3E22E85E0E9E1F1E025
:1025C000DE01A55ABF4F01900D928A95E1F7F09276
:1025D0006A0710E000E030E020E045E050E0BE0196
:1025E000655A7F4F82E697E00E944E088091670708
:1025F00090916807DC01ED91FC910190F081E02D54
:1026000063E009956AEF70E080E090E00E94460583
:102610006BE372E080916707909168070E941E0348
:102620006AEF70E080E090E00E94460569E372E0A6
:1026300080916707909168070E941E0364EF71E024
:1026400080E090E00E9446056DE272E080916707AD
:10265000909168070E941E0364EF71E080E090E0B3
:102660000E94460582E697E00E94210685E0EEE1A1
:10267000F1E0DE01119601900D928A95E1F7E0926A
:102680006A0704E010E09E012B543F4F45E050E004
:10269000BE016F5F7F4F82E697E00E944E088F3F3A
:1026A000980739F468EE73E080E090E00E944605F8
:1026B00084CFCB54DF4F2881C55BD0402111FFCFA1
:1026C000049709F0ABC0CA54DF4F2881C65BD040E5
:1026D0002053330B44E6429FC001439F900D1124C9
:1026E000C954DF4F2881C75BD040EAE02E9F800DA0
:1026F000911D1124805E9140C854DF4F2881C85B32
:10270000D0402053330B820F931F90936407809324
:10271000630782E380936A070E94260D68E771E0F1
:10272000CE01855A9F4F0E94E10BCD54DF4F888127
:10273000C35BD0408F3F99F048E050E061EA71E020
:10274000CE01855A9F4F0E940508CE01855A9F4FA2
:102750000E945F0BCE01855A9F4F0E941709EDE33F
:10276000F2E0E49190917B008E2F880F880F8072A9
:102770009F7D892B80937B00E770E064E0937C0071
:1027800080917A00806480937A0080917A0086FD3F
:10279000FCCF8091780060917900762F682F072E0A
:1027A000000C880B990B611571058105910511F0DD
:1027B0000E942E1A9E012F5F3F4F79018BE00E94ED
:1027C0009904892B71F16AEA71E0CE018B549F4F15
:1027D0000E94D00B0E94260D68E771E0C7010E949D
:1027E000E10B6A968FAD6A978F3F49F0BE016B543B
:1027F0007F4FC7010E94650BC7010E941709C701DF
:102800000E94880CCE018B549F4F0E94800C68EE72
:1028100073E080E090E00E944605D0CF84E690E02F
:1028200074CF64E771E0CE0185549F4F0E94D00BB6
:102830001C821B8288EE93E0A0E0B0E08D839E8333
:10284000AF83B8878EE291E09A83898382E697E02E
:102850009E878D871A8A1B8A1C8A67EB71E0CE01DE
:102860008B549F4F0E94D00BC7010E94630886E0E3
:1028700090E00E94401E8C01DC0111961C921E9279
:1028800013961C921E92129715961C921E921497E4
:10289000BE016B547F4F0E94B90B198B088BCE0180
:1028A0008B549F4F0E94800C6CEB71E0CE018B54D7
:1028B0009F4F0E94D00B6FE971E0888999890E942F
:1028C000550BC754DF4F48815981C95BD040CB5469
:1028D000DF4F68817981C55BD040888999890E94E2
:1028E000290BCE018B549F4F0E94800CC7010E9480
:1028F000990CC7010E948D088B898823D1F0C701EC
:102900000E94DA088A30A9F3CB54DF4F8883C55B75
:10291000D040CA54DF4F1882C65BD04041E050E03F
:10292000BE016B547F4FCE0185549F4F0E94290BEF
:10293000E0CF8EE291E09A838983C7010E94630809
:10294000C154DF4F48815981CF5BD040C554DF4F20
:1029500068817981CB5BD04083E797E00E94290BA7
:10296000CE0185549F4F0E94800C63EC71E0C7013B
:102970000E94D00B65EC71E0CE018B549F4F0E94FA
:10298000D00BB701CE018B549F4F0E94C409CE01DA
:102990008B549F4F0E94800CC7010E94800C67ECF3
:1029A00071E0C7010E94D00B6BEC71E0CE018B543B
:1029B0009F4F0E94D00BB701CE018B549F4F0E94B6
:1029C000C409CE018B549F4F0E94800CC7010E9406
:1029D000800C63EC71E0C7010E94D00B6DEC71E0DC
:1029E000CE018B549F4F0E94D00BB701CE018B5468
:1029F0009F4F0E94C409CE018B549F4F0E94800CB0
:102A0000C7010E94800C6FEC71E0C7010E94D00BDF
:102A10004091770750917807609173077091740720
:102A2000C7010E94290B811103C0C7010E947C0BC2
:102A30006AE971E0C7010E94550B4D815E81698191
:102A40007A8189E797E00E94290BC7010E94800CD8
:102A5000CE01855A9F4F0E94880C87E1282E90E076
:102A6000C92E90E0D92E3324339464E771E08DE6CB
:102A700097E00E94AF0B84E00E949904892BF1F546
:102A80008091590690915A06A0915B06B0915C0620
:102A9000892B8A2B8B2B09F0CFC180915506909101
:102AA0005606A0915706B0915806892B8A2B8B2B7E
:102AB00009F0C2C18091510690915206A09153062F
:102AC000B0915406892B8A2B8B2B09F0B5C18091CC
:102AD0004D0690914E06A0914F06B0915006892B5D
:102AE0008A2B8B2B09F0A8C10E94FE056093490632
:102AF00070934A0680934B0690934C06809149064A
:102B000090914A06A0914B06B0914C06892B8A2BD6
:102B10008B2BF1F11092490610924A0610924B0647
:102B200010924C060E94DF1924E630E040E050E0AD
:102B30000E942E1D009145061091460620914706E1
:102B400030914806601771078207930708F07DC12E
:102B5000309244060E94DF1929E532E040E050E05F
:102B60000E942E1D68537F4F8F4F9F4F60934006EA
:102B70007093410680934206909343060E94FE059F
:102B800060934D0670934E0680934F0690935006C7
:102B900080904D0690904E06A0904F06B090500643
:102BA00081149104A104B104B1F10E94FE056819D9
:102BB00079098A099B0900914006109141062091EC
:102BC000420630914306061717072807390718F5FC
:102BD00010924D0610924E0610924F06109250061B
:102BE000109240061092410610924206109243063F
:102BF0000E94FE056093590670935A0680935B0607
:102C000090935C068091440661E0882309F420C11A
:102C100087E00E94C2048090590690905A06A090C6
:102C20005B06B0905C0681149104A104B10471F1BB
:102C30000E94FE05681979098A099B0900913C06E2
:102C400010913D0620913E0630913F06061717076A
:102C500028073907D8F41092590610925A06109294
:102C60005B0610925C068091440660E0882309F4BC
:102C7000F1C087E00E94C2040E94FE0560935106E5
:102C80007093520680935306909354068090510699
:102C900090905206A0905306B0905406811491046F
:102CA000A104B10409F451C00E94FE056819790914
:102CB0008A099B09009138061091390620913A063D
:102CC00030913B060617170728073907F0F51092D1
:102CD000510610925206109253061092540680909C
:102CE000300690903106A0903206B0903306809165
:102CF0004406882309F4B0C08091340690913506CB
:102D0000A0913606B09137060196A11DB11D8093A2
:102D1000340690933506A0933606B093370661E0EB
:102D200088E00E94C204C501B4010E94460560E02B
:102D300088E00E94C2040E94FE05609355067093CD
:102D4000560680935706909358064090550650902B
:102D5000560660905706709058064114510461045D
:102D6000710409F402C180902C0690902D06A09069
:102D70002E06B0902F06B8EC8B1A9108A108B10866
:102D80000E94FE056419750986099709861697063B
:102D9000A806B90608F0E9C084E00E949904892BCE
:102DA00009F4E3C010925506109256061092570689
:102DB000109258066091790770917A07C7010E94B6
:102DC000E10B6A968FAD6A978F3F09F4CBC00DE196
:102DD00012E0812C912C54018091280690912906B3
:102DE000A0912A06B0912B0688169906AA06BB0662
:102DF000F0F5B801CE01855A9F4F0E94D00BBE015D
:102E0000655A7F4FC7010E94650B90E080E0F80192
:102E1000E80FF91F1082019687319105C1F7CE01A5
:102E2000855A9F4F0E94800CEFEF8E1A9E0AAE0AC1
:102E3000BE0A095E1F4FD0CF1092490610924A0673
:102E400010924B0610924C0659CE1092440682CE38
:102E500082E0DFCE82E00ECF61E08AE00E94C20411
:102E6000C501B4010E94460560E08AE062CF60912E
:102E7000190270911A0280911B0290911C02CB548E
:102E8000DF4F19821882C55BD040C954DF4F1982C9
:102E90001882C75BD040C754DF4F19821882C95BC4
:102EA000D0408E01055A1F4F22E044E00E94751960
:102EB000009709F4C6C1BC01CE018B549F4F0E94FC
:102EC000AF0B0E94FE050E94A01C20E030E04AE704
:102ED00054E40E94C81D6093190270931A028093F3
:102EE0001B0290931C026D961FAE1EAE6D976F96DF
:102EF0001FAE1EAE6F97A1961FAE1EAEA197BE016C
:102F00006B547F4FCE01855A9F4F0E94B90B48E00A
:102F100050E062EF71E0CE01855A9F4F0E94290B6D
:102F2000811105C0CE01855A9F4F0E947C0BBE01C6
:102F3000655A7F4FC7010E94650BCE01855A9F4F8E
:102F40000E94800CC7010E94170910922806109257
:102F5000290610922A0610922B06CE018B549F4F01
:102F60000E94800CC7010E94880C809149069091B4
:102F70004A06A0914B06B0914C06892B8A2B8B2BCD
:102F800089F58091590690915A06A0915B06B091FF
:102F90005C06892B8A2B8B2B29F580914D0690910D
:102FA0004E06A0914F06B0915006892B8A2B8B2B91
:102FB000C9F48091510690915206A0915306B091A8
:102FC0005406892B8A2B8B2B69F48091550690919E
:102FD0005606A0915706B0915806892B8A2B8B2B49
:102FE00009F46BC10E94FE050E94A01C20E030E0A5
:102FF0004AE754E40E94C81D6093190270931A02B4
:1030000080931B0290931C02870122E044E00E94FF
:103010007519FC0101900020E9F73197AF01481BB9
:10302000590BBC018DE697E00E94290B6BEF71E014
:103030008DE697E00E94550B84E00E9499046DEFA5
:1030400071E0892B11F069EF71E08DE697E00E9445
:10305000550B6BEF71E08DE697E00E94550B8BE00E
:103060000E9499046FEF71E0892B11F469EF71E010
:103070008DE697E00E94550B6BEF71E08DE697E0CF
:103080000E94550B80914406882309F4E0C080918A
:103090004D0690914E06A0914F06B0915006892B97
:1030A0008A2B8B2B31F061E072E08DE697E00E9475
:1030B000550B8091590690915A06A0915B06B091EC
:1030C0005C06892B8A2B8B2B31F063E072E08DE656
:1030D00097E00E94550B8091510690915206A09165
:1030E0005306B0915406892B8A2B8B2B31F065E067
:1030F00072E08DE697E00E94550B80915506909105
:103100005606A0915706B091580667E072E0892BE9
:103110008A2B8B2B09F09DC06BEF71E08DE697E059
:103120000E94550B609140067091410680914206C5
:10313000909143062AE0A7010E94371AF7010190F7
:103140000020E9F73197AF014E195F09B7018DE60D
:1031500097E00E94290B00917107109172070115E9
:10316000110509F07BC06C961FAE6C978090280605
:1031700090902906A0902A06B0902B06289CC001AA
:10318000299C900D1124BE01655A7F4F835E9D4F8F
:103190000E943D20FFEF8F1A9F0AAF0ABF0A80925C
:1031A000280690922906A0922A06B0922B0628E2C1
:1031B00082169104A104B10409F075C060917907E9
:1031C00070917A07C7010E94E10B6A968FAD6A97EA
:1031D0008F3F09F465C00DE112E0812C912C540160
:1031E0008091280690912906A0912A06B0912B067D
:1031F00088169906AA06BB0608F047C0B801CE019A
:103200008B549F4F0E94D00BBE016B547F4FC70160
:103210000E94650B90E080E0F801E80FF91F108232
:10322000019687319105C1F7CE018B549F4F0E94C3
:10323000800C3FEF831A930AA30AB30A095E1F4F5B
:10324000CFCFCE018B549F4F0E947C0B3ACE69E0CA
:1032500072E08DE697E00E94550B5ECF06311105B6
:1032600010F006E110E060916D0770916E07A80103
:10327000CE01855A9F4F0E944420EBE5F0E0EC0F11
:10328000FD1FE00FF11F108271CFC7010E941709C7
:10329000109228061092290610922A0610922B06E8
:1032A000C7010E94880C60911502709116028091EE
:1032B0001702909118020E944605C114D10409F426
:1032C000D4CB0E94AC03882309F4CFCB0E9400002A
:1032D000CCCB8DE697E00E94800C83E797E00E94BC
:1032E000800C89E797E00C94800CEF920F931F936A
:1032F000CF93DF93E80134E047FD34E1042E000C66
:10330000550B57FF03C0519541955109E32E022FEC
:10331000242FAE010E94591ACE01DF91CF911F9147
:103320000F91EF9008958F929F92AF92BF92CF929C
:10333000DF92EF92FF92CF93DF93EC016881798166
:103340008A819B81611571058105910521F464E2F3
:1033500079ED8BE597E02DE133EF41E050E00E94FD
:103360002E1D49015A019B01AC01A7EAB1E40E945C
:103370004D1D6B017C01ACEEB4EFA50194010E94E0
:103380005B1DC60ED71EE81EF91EF7FE06C081E0C3
:10339000C81AD108E10880E8F80AC882D982EA820E
:1033A000FB82C701B6019F77DF91CF91FF90EF902D
:1033B000DF90CF90BF90AF909F908F9008958F92A5
:1033C0009F92AF92BF92CF92DF92EF92FF92609165
:1033D0000C0170910D0180910E0190910F0161150A
:1033E00071058105910521F464E279ED8BE597E0A3
:1033F0002DE133EF41E050E00E942E1D49015A01BA
:103400009B01AC01A7EAB1E40E944D1D6B017C0158
:10341000ACEEB4EFA50194010E945B1DC60ED71E51
:10342000E81EF91EF7FE06C081E0C81AD108E108BF
:1034300080E8F80AC0920C01D0920D01E0920E01D2
:10344000F0920F01C701B6019F77FF90EF90DF90D8
:10345000CF90BF90AF909F908F90089560930C0194
:1034600070930D0180930E0190930F010895BB2777
:10347000FA01A62F6217710581059105330B30FB08
:1034800066F0AA27660F771F881F991FAA1FA21729
:1034900010F0A21B63953850A9F7A05DAA3308F07D
:1034A000A95DA19336F7B111B1931082CA010C94B2
:1034B000901CA9E0B0E0EFE5FAE10C94661D6A010A
:1034C000F22EB02E102FFBE3AF2EA01608F41BE354
:1034D0001F5F012F27E0AE014F5F5F4F0E94B81BB7
:1034E000BC018981982F9970913009F43FC09BE20B
:1034F000E1FC04C09E2D9170E0FC3AC05E2D50713D
:10350000E82FE87083FF46C084E0911101C083E09A
:10351000EF2DE81B8F1508F0E0E0D6018E2F20E29A
:10352000552351F1992329F0D6019C93C6010196A8
:103530006C0196012D5F3F4FE2FE24C08EE4D60160
:103540008C9391E411969C93119712968C93D901C8
:103550008E2F90E281111BC0E20FF32FF11D10821C
:103560008EEF9FEF2996ECE00C94821D9DE2C6CF72
:1035700090E2C4CF2D9381508111FCCFCE0ED11C8F
:10358000E0E0D0CF8EE6D6018C9391E6DBCF9D9321
:103590008150E0CF482F447082FF3DC084E09111FC
:1035A00001C083E08F1510F4EF2DE81BD6018E2F9C
:1035B00020E2552309F1992329F0D6019C93C601F5
:1035C00001966C0196012D5F3F4FE2FE1BC089E41E
:1035D000D6018C938EE411968C93119786E4129603
:1035E0008C93D9018E2F90E2882309F4B5CF9D9357
:1035F0008150FACF2D9381508111FCCFCE0ED11C7A
:10360000E0E0D9CF89E6D6018C938EE611968C93B3
:10361000119786E6E4CF9B0177FF02C030E020E0FF
:10362000A1E0B0E0911102C0B0E0A0E0F901319654
:10363000AE0FBF1F8B2C912CBB2009F461C054012D
:10364000EFEFAE1ABE0AAA0DBB1DFA161B0619F043
:1036500014F04F2D4A1B511188C0E3FC59C076016C
:10366000A42FB0E2A1114FC0C40ED11C992309F4BC
:103670005BC040E0D6011196F60190836D015523A1
:1036800009F448C0012F060F9A81582F507184FF0A
:1036900003C0913309F4015010160CF047C00930F3
:1036A00008F008E0EEE2FE2E5B01A01AB1088501E9
:1036B0009194819491082F3F320729F4D601FC920E
:1036C000F60131966F016217730794F10217130721
:1036D0007CF5DB01A21BB30BAA24A394B12CAC0E86
:1036E000BD1EAA0DBB1D11968C9121503109D6012A
:1036F000119628153905F4F0F60180836D01DBCFB2
:10370000B12CA12CA0CFF701B1937F01A150AACF7A
:103710009111B0CFD601942F50E302C05D93915028
:103720009111FCCFC40ED11C40E0ACCF01E0BACF68
:1037300080E3DBCF6217730731F4963388F4953357
:1037400011F4552369F0F6018083FD01842F90E286
:10375000811108C0A40FB11D1C9290E080E002CF3F
:1037600081E3F1CF91938150F3CF911183CF8ACF31
:10377000283008F027E03327DA01990F311D87FD43
:10378000916000966105710539F432602E5F3D93BA
:1037900030E32A95E1F708959F3F30F080387105B6
:1037A000610509F03C5F3C5F3D93913008F0806813
:1037B000911DDF93CF931F930F93FF92EF92192FD9
:1037C000987F9695E92F96959695E90FFF27EA5FE2
:1037D000FE4F99273327EE24FF24A701E701059028
:1037E0000894079428F4360FE71EF81E491F511D50
:1037F000660F771F881F991F0694A1F705900794FD
:1038000028F4E70EF81E491F561FC11D770F881FA9
:10381000991F661F0694A1F70590079428F4F80EE7
:10382000491F561FC71FD11D880F991F661F771F7D
:103830000694A1F70590079420F4490F561FC71F5F
:10384000D81F990F661F771F881F0694A9F78491C8
:103850001095177041F0D695C79557954795F794F1
:10386000E7941A95C1F7ECEAF0E068941590159189
:1038700035916591959105907FE27395E118F10A74
:10388000430B560BC90BD009C0F7E10CF11E431FC7
:10389000561FC91FD01D7EF4703311F48A95E6CFF0
:1038A000E894015030F0080F0AF40027021708F4DA
:1038B000202F2395022F7A3328F079E37D932A95E0
:1038C000E9F710C07D932A9589F606949795679538
:1038D000379517951794E118F10A430B560BC90B4E
:1038E000D00998F023957E9173957A3308F070E3B0
:1038F0007C932013B8F77E9170617D9330F08395AF
:1039000071E37D9370E32A95E1F71124EF90FF9026
:103910000F911F91CF91DF91992787FD9095089581
:10392000DC01FC01672F71917723E1F7329704C026
:103930007C916D9370836291AE17BF07C8F30895B1
:10394000E89409C097FB3EF4909580957095619539
:103950007F4F8F4F9F4F9923A9F0F92F96E9BB27EF
:103960009395F695879577956795B795F111F8CF6B
:10397000FAF4BB0F11F460FF1BC06F5F7F4F8F4FD6
:103980009F4F16C0882311F096E911C0772321F0CC
:103990009EE8872F762F05C0662371F096E8862F64
:1039A00070E060E02AF09A95660F771F881FDAF7BB
:1039B000880F9695879597F9089597F99F6780E8FE
:1039C00070E060E008959FEF80EC089500240A9471
:1039D0001616170618060906089500240A941216EA
:1039E0001306140605060895092E0394000C11F41D
:1039F000882352F0BB0F40F4BF2B11F460FF04C0CA
:103A00006F5F7F4F8F4F9F4F089557FD9058440F22
:103A1000551F59F05F3F71F04795880F97FB991F2D
:103A200061F09F3F79F087950895121613061406EA
:103A3000551FF2CF4695F1DF08C016161706180677
:103A4000991FF1CF86957105610508940895E89452
:103A5000BB2766277727CB0197F90895052E97FB9B
:103A60001EF400940E94451D57FD07D00E94971D2B
:103A700007FC03D04EF40C94451D509540953095AD
:103A800021953F4F4F4F5F4F0895909580957095CA
:103A900061957F4F8F4F9F4F08950E94B91DA59F3D
:103AA000900DB49F900DA49F800D911D1124089539
:103AB000B7FF0C944D1D0E944D1D821B930B089562
:103AC0002F923F924F925F926F927F928F929F922E
:103AD000AF92BF92CF92DF92EF92FF920F931F931C
:103AE000CF93DF93CDB7DEB7CA1BDB0B0FB6F894CD
:103AF000DEBF0FBECDBF09942A88398848885F840D
:103B00006E847D848C849B84AA84B984C884DF807D
:103B1000EE80FD800C811B81AA81B981CE0FD11D61
:103B20000FB6F894DEBF0FBECDBFED010895A1E240
:103B30001A2EAA1BBB1BFD010DC0AA1FBB1FEE1F27
:103B4000FF1FA217B307E407F50720F0A21BB30B72
:103B5000E40BF50B661F771F881F991F1A9469F7EE
:103B600060957095809590959B01AC01BD01CF014A
:103B70000895A29FB001B39FC001A39F700D811D46
:103B80001124911DB29F700D811D1124911D089566
:103B90000E94DC1D0C94F41C0E94ED1C58F00E9445
:103BA000E61C40F029F45F3F29F00C94DD1C511114
:103BB0000C94281D0C94E31C0E94051D68F39923A6
:103BC000B1F3552391F3951B550BBB27AA27621719
:103BD0007307840738F09F5F5F4F220F331F441F26
:103BE000AA1FA9F335D00E2E3AF0E0E832D091505A
:103BF0005040E695001CCAF72BD0FE2F29D0660F47
:103C0000771F881FBB1F261737074807AB07B0E889
:103C100009F0BB0B802DBF01FF2793585F4F3AF08F
:103C20009E3F510578F00C94DD1C0C94281D5F3FDD
:103C3000E4F3983ED4F3869577956795B795F79515
:103C40009F5FC9F7880F911D9695879597F90895FD
:103C5000E1E0660F771F881FBB1F62177307840799
:103C6000BA0720F0621B730B840BBA0BEE1F88F7A8
:103C7000E0950895EE0FFF1F0590F491E02D099453
:103C80000F931F93CF93DF938230910510F482E05E
:103C900090E0E0918107F091820730E020E0B0E011
:103CA000A0E0309799F42115310509F44AC0281B8A
:103CB000390B24303105D8F58A819B816115710556
:103CC00089F1FB0193838283FE0111C04081518100
:103CD0000281138148175907E0F04817590799F4F2
:103CE000109761F012960C93129713961C933296CC
:103CF000CF01DF91CF911F910F910895009381071C
:103D000010938207F4CF2115310551F04217530764
:103D100038F0A901DB019A01BD01DF01F801C1CF33
:103D2000EF01F9CF9093820780938107CDCFFE01F9
:103D3000E20FF31F81939193225031093983288335
:103D4000D7CF20917F0730918007232B41F420911A
:103D50001201309113013093800720937F07209147
:103D60001001309111012115310541F42DB73EB7F5
:103D70004091140150911501241B350BE0917F07F0
:103D8000F0918007E217F307A0F42E1B3F0B2817D2
:103D9000390778F0AC014E5F5F4F2417350748F0C4
:103DA0004E0F5F1F5093800740937F07819391933D
:103DB0009FCFF0E0E0E09CCFCF93DF930097E9F056
:103DC000FC01329713821282A0918107B091820781
:103DD000ED0130E020E01097A1F420813181820FC5
:103DE000931F20917F07309180072817390709F02A
:103DF00061C0F0938007E0937F07DF91CF91089532
:103E0000EA01CE17DF07E8F54A815B819E01411583
:103E10005105B1F7E901FB83EA8349915991C40F38
:103E2000D51FEC17FD0761F4808191810296840F04
:103E3000951FE90199838883828193819B838A837B
:103E4000F0E0E0E012968D919C9113970097B9F500
:103E50002D913C911197CD010296820F931F2091D5
:103E60007F07309180072817390739F6309751F5C9
:103E70001092820710928107B0938007A0937F076A
:103E8000BCCFD383C28340815181840F951FC81753
:103E9000D90761F44E5F5F4F88819981480F591FA0
:103EA000518340838A819B819383828321153105CD
:103EB00009F0B0CFF0938207E09381079ECFFD0118
:103EC000DC01C0CF13821282D7CFB0E0A0E0EBE6D6
:103ED000FFE10C94621D8C01009751F4CB010E940C
:103EE000401E8C01C801CDB7DEB7E0E10C947E1D09
:103EF000FC01E60FF71F9C0122503109E217F3077E
:103F000008F49DC0D901CD91DC911197C617D70750
:103F100098F0C530D10530F3CE0104978617970786
:103F200008F3C61BD70B2297C193D1936D937C9353
:103F3000CF010E94DC1ED6CF5B01AC1ABD0A4C013A
:103F40008C0E9D1EA0918107B0918207512C412CAF
:103F5000F12CE12C109731F580917F07909180072B
:103F60008815990509F05CC04616570608F058C038
:103F70008091100190911101009741F48DB79EB787
:103F80004091140150911501841B950BE817F90716
:103F900008F055C0F0938007E0937F07F901718323
:103FA0006083A0CF8D919C91119712966C9012977F
:103FB00013967C901397A815B90559F56C0142E04A
:103FC000C40ED11CCA14DB0420F1AC014A195B09F0
:103FD000DA011296159780F06282738251834083D2
:103FE000D9016D937C93E114F10471F0D70113961C
:103FF000FC93EE93129776CF22968C0F9D1FF901BA
:1040000091838083F301EFCFF0938207E0938107E0
:1040100069CF4816590608F42C017D01D3019ACFC7
:10402000CB010E94401E7C01009749F0AE01B8010F
:104030000E942220C8010E94DC1E870153CF10E09D
:1040400000E050CFFB01DC0102C001900D92415015
:104050005040D8F708956817790768F4FB01DC0130
:10406000E40FF51FA40FB51F02C002900E9241503D
:104070005040D8F708950C942220FB01DC010190F8
:104080000D920020E1F70895FB01DC014150504002
:1040900048F001900D920020C9F701C01D924150D7
:1040A0005040E0F70895FB0151915523A9F0BF015D
:1040B000DC014D9145174111E1F759F4CD01019013
:1040C000002049F04D9140154111C9F3FB01411108
:1040D000EFCF81E090E00197089511E0CEE5D1E0C7
:1040E00004C0FE010E943A1E2196CF35D107C9F7C0
:0440F000F894FFCF72
:1040F400FFFFFFFF00E100000000000001000000DE
:1041040000008307800072776158585858585858EF
:1041140031303000C1808100000000000000F2084E
:104124004203C1090A06BD08DA08C70800000000F6
:104134000B060508C1090A068C09A909960900009D
:104144000000D8017905F901EE013F02FD011B02CF
:1041540000000000E10342036F032D04A0037E036B
:1041640092030D0A00726D002F6D6E742F736461DB
:10417400312F61726475696E6F2F7777772F707244
:104184006F677265737366696C652E74787400FE6C
:10419400005374617274696E6700696E6974696151
:1041A4006C697A696E670064617465002B25442D1F
:1041B4002554005F002F007E547E002D003A002F0E
:1041C4006D6E742F736461312F61726475696E6FE3
:1041D4002F7777772F74656D70746573742E747888
:1041E40074002C302C302C372C30002C0031003251
:0C41F400003300340035003700390000B3
:00000001FF
