:100000000C945F010C9487010C9487010C94870178
:100010000C9487010C9487010C9487010C94870140
:100020000C9487010C9487010C94100E0C947F0E95
:100030000C9487010C9487010C9487010C94870120
:100040000C9487010C9487010C9487010C94870110
:100050000C9487010C9487010C9487010C9409116E
:100060000C9487010C94D7100C94B1100C94870158
:100070000C9487010C9487010C9487010C948701E0
:100080000C9487010C9487010C9487010C948701D0
:100090000C9487010C9487010C9487010C948701C0
:1000A0000C9487010C9487010C94870100407A100E
:1000B000F35A00A0724E18090010A5D4E80000E819
:1000C0007648170000E40B54020000CA9A3B000077
:1000D00000E1F505000080969800000040420F0006
:1000E0000000A08601000000102700000000E803C7
:1000F000000000006400000000000A000000000092
:100100000100000000002C76D888DC674F0823DF50
:10011000C1DFAE59E1B1B796E5E3E453C63AE65123
:10012000997696E8E6C28426EB898C9B62ED407C4A
:100130006FFCEFBC9C9F40F2BAA56FA5F490055AE6
:100140002AF75C936B6CF9676DC11BFCE0E40D470B
:10015000FEF520E6B500D0ED902E0300943577052E
:100160000080841E080000204E0A000000C80C33E6
:100170003333330F986E12831141EF8D2114893B75
:10018000E65516CFFEE6DB18D1844B381BF77C1DF5
:10019000901DA4BBE424203284725E228100C9F148
:1001A00024ECA1E53D2700000000240027002A00E0
:1001B0002D00300000000000250028002B002E003C
:1001C0003100000000002300260029002C002F0031
:1001D00004040404040304050202020204030202EC
:1001E00002020606060606060404020202040404CD
:1001F0000802011040804010204080408008020426
:10020000018040201002011080102040402000009A
:10021000000200090F0000030401000C00000000B0
:100220000000000000000000000000000072756E79
:100230002D6272696467650A000A000A00070605F4
:10024000040100080A0B0C0D09080B000202020051
:10025000000904000001020200000524001001054D
:10026000240101010424020605240600010705817A
:100270000310004009040100020A00000007050203
:100280000240000007058302400000040309041235
:10029000010002EF020140412341800001010203FD
:1002A0000141726475696E6F204C4C430041726469
:1002B00075696E6F2059756E00005311751A1124FF
:1002C0001FBECFEFDAE0DEBFCDBF12E0A0E0B1E0AD
:1002D000E6E5F3E402C005900D92AC30B107D9F722
:1002E00027E0ACE0B2E001C01D92AA38B207E1F706
:1002F00011E0CEE5D1E004C02197FE010E946B1F02
:10030000CD35D107C9F70E94B6110C949E210C94EB
:100310000000FC0180917906882311F13FB7F89421
:1003200082E08093E9002091F200822F90E018167D
:10033000190614F481E090E0882339F0289844E607
:10034000409378064091F1004083222339F02091B8
:10035000F200211103C02BE62093E8003FBF08956F
:100360008FEF9FEF08952FB7F89483E08093E90013
:100370009091E800892F807295FF04C09091F2005F
:1003800080E4891B2FBF08958091700681110DC0F4
:1003900082E080936C0684E080936D0610926F0675
:1003A00010926E0681E0809370068CE696E00895C8
:1003B000CF93DF931F92CDB7DEB76983DC01ED9158
:1003C000FC910280F381E02D41E050E0BE016F5FBF
:1003D0007F4F09950F90DF91CF91089583E080932F
:1003E000E9008091F200882319F08AE38093E80005
:1003F00008950E94B30190E00895CF93DF931F9278
:10040000CDB7DEB7FC018485958597FD08C02FEF39
:100410003FEF358724870F90DF91CF910895CE016C
:1004200001960E948901019719F4898190E0F3CF28
:100430008FEF9FEFF0CF0F931F93CF93DF931F9218
:10044000CDB7DEB78C01FC018485958597FF0BC085
:10045000CE0101960E948901019771F4898190E093
:10046000F80195878487F801848595850F90DF9141
:10047000CF911F910F9108958FEF9FEFF1CFFC0166
:100480008485958597FD0BC09FB7F89482E0809393
:10049000E9008091F2009FBF90E0019608959FB718
:1004A000F89482E08093E9008091F2009FBF90E091
:1004B0000895409166065091670620916406309138
:1004C000650642175307B4F49091E8009570E1F384
:1004D0009091E80092FD19C08093F100809166062A
:1004E0009091670601968F739927892B19F48EEFE7
:1004F0008093E8008091660690916706019690933C
:1005000067068093660681E0089580E00895EF9283
:10051000FF920F931F93CF93DF93F82E192FE62EA0
:10052000042F81E0860F880F0E94590283E00E9409
:100530005902CF2DD12FEC0EFD2EF11CCE15DF056B
:10054000B9F007FF13C0FE0184910E945902182FD1
:1005500080E00E945902812321968111EFCFDF9123
:10056000CF911F910F91FF90EF9008958881EDCF6B
:1005700081E0F5CFDF92EF92FF920F931F93CF931D
:10058000DF93D82E8A01EB017B01E40EF51ECE1518
:10059000DF0559F0D7FE12C0FE0184910E94590276
:1005A00021968111F4CF0FEF1FEFC801DF91CF919A
:1005B0001F910F91FF90EF90DF9008958881EECF0B
:1005C0000F931F93CF93DF931F92CDB7DEB782E0D7
:1005D000898342E450E069E472E080E80E94BA0254
:1005E0000E94C401DC0112960D911C9101151105A8
:1005F00089F0D801ED91FC910280F381E02DBE01DC
:100600006F5F7F4FC801099597FD04C0F801008511
:100610001185ECCF89810F90DF91CF911F910F91C0
:100620000895615030F02091F100FC012083019683
:10063000F8CF289884E68093780608950895EF927D
:10064000FF920F931F93CF93DF938C017B01D0E038
:10065000C0E0F701EC0FFD1F6491662361F0D80143
:10066000ED91FC910190F081E02DC8010995892B55
:1006700011F02196EECFCE01DF91CF911F910F9116
:10068000FF90EF900895AF92BF92CF92DF92EF92DA
:10069000FF920F931F93CF93DF936C017B018B012C
:1006A000040F151FEB015E01AE18BF08C017D1077C
:1006B00059F06991D601ED91FC910190F081E02D06
:1006C000C6010995892B79F7C501DF91CF911F915B
:1006D0000F91FF90EF90DF90CF90BF90AF90089573
:1006E000FC01538D448D252F30E0842F90E0821B38
:1006F000930B541710F0CF96089501970895FC01BD
:10070000918D828D981761F0A28DAE0FBF2FB11D14
:100710005D968C91928D9F5F9F73928F90E008956C
:100720008FEF9FEF0895FC01918D828D981731F026
:10073000828DE80FF11D858D90E008958FEF9FEF7A
:100740000895FC01918D228D892F90E0805C9F4F50
:10075000821B91098F73992708958CEC96E00E9473
:10076000A10321E0892B09F420E0822F089580E085
:1007700090E0892B29F00E94AD0381110C940000B8
:100780000895FC01A48DA80FB92FB11DA35ABF4F26
:100790002C91848D90E001968F739927848FA68980
:1007A000B7892C93A089B1898C9182748C93938D95
:1007B000848D981306C00288F389E02D80818F7D97
:1007C00080830895EF92FF920F931F93CF93DF934F
:1007D000EC0181E0888F9B8D8C8D981319C0E8897E
:1007E000F989808185FF14C09FB7F894EE89FF894D
:1007F0006083E889F9898081827480839FBF81E06A
:1008000090E0DF91CF911F910F91FF90EF900895AD
:10081000F62E0B8D10E00F5F1F4F0F731127E02E88
:100820008C8D8E110CC00FB607FCFACFE889F989C0
:10083000808185FFF5CFCE010E94C103F1CFEB8D02
:10084000EC0FFD2FF11DE35AFF4FF0829FB7F89494
:100850000B8FEA89FB8980818062CFCFCF93DF93B2
:10086000EC01888D8823B9F0AA89BB89E889F989C8
:100870008C9185FD03C0808186FD0DC00FB607FCFD
:10088000F7CF8C9185FFF2CF808185FFEDCFCE0130
:100890000E94C103E9CFDF91CF91089581508F303D
:1008A00008F047C0E82FF0E0E85AFB4F0C946B1FAC
:1008B0007504790467046D0471049904990499041A
:1008C0007C04820486048A04900499049404809130
:1008D00080008F77809380000895809180008F7DC5
:1008E000F9CF80918000877FF5CF84B58F7784BD65
:1008F000089584B58F7DFBCF809190008F77809392
:1009000090000895809190008F7DF9CF80919000A4
:10091000877FF5CF8091C0008F778093C0000895C6
:100920008091C0008F7DF9CF8091C200877F809336
:10093000C2000895CF93DF93282F30E0F901E25FE2
:10094000FD4F8491F901E151FE4FD491F901E0533B
:10095000FE4FC491CC23A1F081110E944E04EC2FD4
:10096000F0E0EE0FFF1FEE53FE4FA591B491EC9116
:10097000ED2381E090E009F480E0DF91CF910895CC
:1009800080E090E0FACF1F93CF93DF93282F30E0E1
:10099000F901E25FFD4F8491F901E151FE4FD491DD
:1009A000F901E053FE4FC491CC23A9F0162F811119
:1009B0000E944E04EC2FF0E0EE0FFF1FEC54FE4FB0
:1009C000A591B4918FB7F894EC91111108C0D0950E
:1009D000DE23DC938FBFDF91CF911F910895DE2B33
:1009E000F8CFCF93DF9390E0FC01E151FE4F2491CB
:1009F00080539E4FFC0184918823D1F090E0880FB2
:100A0000991FFC01EA55FE4FA591B491FC01EC54ED
:100A1000FE4FC591D49161110EC09FB7F8948C918F
:100A2000E22FE0958E238C932881E223E8839FBFF9
:100A3000DF91CF9108958FB7F894EC91E22BEC936E
:100A40008FBFF6CF3FB7F8948091110290911202B8
:100A5000A0911302B091140226B5A89B05C02F3FA8
:100A600019F00196A11DB11D3FBFBA2FA92F982FD4
:100A70008827BC01CD01620F711D811D911D42E0CF
:100A8000660F771F881F991F4A95D1F708958F9297
:100A90009F92AF92BF92CF92DF92EF92FF926B0143
:100AA0007C010E9422054B015C01C114D104E104C8
:100AB000F104B9F00E942205681979098A099B0995
:100AC000683E73408105910580F321E0C21AD10888
:100AD000E108F10888EE880E83E0981EA11CB11C85
:100AE000E4CFFF90EF90DF90CF90BF90AF909F90BA
:100AF0008F9008958F929F92AF92BF92CF92DF9284
:100B0000EF92FF920F931F93CF93DF936C017B01C2
:100B10008A0180910B01882309F45CC080917906D9
:100B2000882309F457C080916B0680FF05C080912F
:100B3000E00082608093E000E801B12C8AEFA82EEB
:100B400093E0892E2AE3922E209711F4BB20D9F14D
:100B50000E94B30181110AC0AA94AA20D9F161E0D0
:100B600070E080E090E00E944705EECF8C171D06F4
:100B700011F00CF08C2F9FB7F8948092E90020912F
:100B8000E80025FD02C09FBFDFCF282F30E0C21B49
:100B9000D30BF701815020F041914093F100FACF3F
:100BA000E20EF31EBB2021F09092E800B12CEBCFB7
:100BB0008091E80085FDE7CF9092E800BB24B394D4
:100BC000209709F3F3CF5D9884E680936A061016A8
:100BD00011063CF081E090E0F6019383828310E0FF
:100BE00000E0C801DF91CF911F910F91FF90EF902E
:100BF000DF90CF90BF90AF909F908F9008952FB7C8
:100C0000F89460910D0270910E0280910F02909104
:100C100010022FBF08950895CF93DF931F92CDB791
:100C2000DEB76983DC01ED91FC910280F381E02D58
:100C300041E050E0BE016F5F7F4F09950F90DF915B
:100C4000CF910895CF93DF93EC018D819E81DC01DC
:100C5000ED91FC910084F185E02D09951816190697
:100C600054F48D819E81DC01ED91FC910284F38529
:100C7000E02D0995EACFDF91CF9108958F929F9251
:100C8000AF92BF92CF92DF92EF92FF92CF93DF931A
:100C9000EC016B010E94FF054B015C01F12CE12C82
:100CA0008D819E81DC01ED91FC910284F385E02D24
:100CB000099597FF0DC00E94FF05681979098A09F7
:100CC0009B096C157D058E059F0550F38FEF9FEFF7
:100CD000DF91CF91FF90EF90DF90CF90BF90AF90DA
:100CE0009F908F900895FC01238134812627022E46
:100CF0002295207F2025032E322F22952F70022649
:100D0000269532272327220F220F220F20253483F6
:100D1000238308952F923F924F925F926F927F921A
:100D20008F929F92AF92BF92CF92DF92EF92FF92FB
:100D30000F931F93CF93DF93CDB7DEB72A970FB6EC
:100D4000F894DEBF0FBECDBF9A8789875B0129016A
:100D500037011A01200E311E3A82198288248A94A2
:100D6000982C9A01260F371F3E832D83C801840DCE
:100D7000951D98878F83A985BA8518968C91B9811E
:100D8000B81708F040C1E985FA859482838285818D
:100D90009681DC01ED91FC910190F081E02D6FEFE7
:100DA00009956FEF89859A850E947306E985FA8512
:100DB00085819681DC01ED91FC910190F081E02D1F
:100DC000A985BA856C910995E985FA856081CF017D
:100DD0000E947306A985BA8515968D919C91DC01B8
:100DE000ED91FC910190F081E02D6A8109956A8175
:100DF00089859A850E947306E985FA8585819681A1
:100E0000DC01ED91FC910190F081E02D622D0995BE
:100E1000622D89859A850E9473068501E985FA8588
:100E200085819681D8016D918D01DC01ED91FC9158
:100E30000190F081E02D0995F80131976081898555
:100E40009A850E947306ED81FE810E171F0731F708
:100E50008201A985BA8515968D919C91DC01ED9151
:100E6000FC910190F081E02D2F813885201731070A
:100E700061F0D8016D918D010995F801319760817C
:100E800089859A850E947306E4CFA985BA85149650
:100E90006C910995E985FA8585819681DC01ED9152
:100EA000FC910190F081E02DA985BA8513966C9193
:100EB000099568EC70E089859A850E943E068F3F0F
:100EC000910509F092C0E985FA85948283826FEFDB
:100ED000CF010E94730665E070E089859A850E94C3
:100EE0003E06A985BA856C916817190609F07DC080
:100EF000CD010E9473066AE070E089859A850E94A0
:100F00003E067C0197FD71C0682F89859A850E94F5
:100F100073066AE070E089859A850E943E068C011E
:100F200097FD63C0682F89859A850E947306EC82BD
:100F30001B82EB81FC810E0F1F1FF12CE12C65E061
:100F400070E089859A850E151F05A1F0EC14FD044B
:100F500089F00E943E0697FD09C0F301EE0DFF1DCA
:100F60008083682F89859A850E947306FFEFEF1AA8
:100F7000FF0AE5CF0E943E067C0197FD36C065E082
:100F800070E089859A850E943E0697FD2EC0FE2C52
:100F9000EE248E0D9F1DA985BA8513962D913C9147
:100FA00014978217930709F58C918F5F8C93C80172
:100FB000C016D10608F4C6012A960FB6F894DEBF13
:100FC0000FBECDBFDF91CF911F910F91FF90EF909A
:100FD000DF90CF90BF90AF909F908F907F906F9059
:100FE0005F904F903F902F900895B981BF5FB98374
:100FF00064E670E080E090E00E94470589859A856C
:101000000E942206B8CE8FEF9FEFD6CFAF92BF924D
:10101000CF92DF92EF92FF920F931F93CF93DF93C4
:1010200000D01F92CDB7DEB79B015A01FC01E85AF0
:10103000FF4F40814F3F81F147E649833196408120
:101040004A83805B9F4FCC24C394D12CAE014D5F6B
:101050005F4F7A01850142E050E0BE016F5F7F4F34
:10106000FC01808191810E948A068B81882329F06E
:10107000A82EB12CB194A194B108C5010F900F9086
:101080000F90DF91CF911F910F91FF90EF90DF9024
:10109000CF90BF90AF9008958FEF9FEFEFCFCF929B
:1010A000DF92EF92FF920F931F936801790110E096
:1010B00000E030E020E00E948A061F910F91FF902F
:1010C000EF90DF90CF900895EF92FF920F931F93D0
:1010D000CF93DF9300D0CDB7DEB77C01FC018189CF
:1010E000882389F087E7898386858A8310E000E07A
:1010F00030E020E042E050E0BE016F5F7F4F84852A
:1011000095850E944F08F701118A0F900F90DF918B
:10111000CF911F910F91FF90EF900895EF92FF9262
:101120000F931F93CF93DF9300D01F92CDB7DEB7FD
:10113000FC012289211118C07C01138A8FE4898364
:1011400080E48B8386858A839F012C5E3F4F00E479
:1011500010E043E050E0BE016F5F7F4F84859585CE
:101160000E944F08F701828B0F900F900F90DF9134
:10117000CF911F910F91FF90EF900895CF93DF9340
:10118000EC010E948E088A8990E0DF91CF9108954A
:10119000CF93DF93EC010E948E088A89882341F067
:1011A0008B89C80FD11D8C8990E0DF91CF91089574
:1011B0008FEF9FEFFACFCF93DF93EC010E948E0861
:1011C0008A89882369F081508A8B8B8991E0980FF6
:1011D0009B8BC80FD11D8C8990E0DF91CF91089532
:1011E0008FEF9FEFFACF0F931F93CF93DF9300D032
:1011F0001F92CDB7DEB729E42983FC0126852A8317
:101200006B8310E000E030E020E043E050E0BE01FE
:101210006F5F7F4F848595850E944F0881E090E045
:101220000F900F900F90DF91CF911F910F91089524
:10123000EF92FF920F931F93CF93DF9300D01F92F3
:10124000CDB7DEB77C0128E5E20EF11CF701208165
:101250002F3FC9F026E62983319620812A83805BBF
:101260009F4F01E010E09E012D5F3F4F42E050E0B4
:10127000BE016F5F7F4FFC01808191810E944F080A
:101280008FEFF70180830F900F900F90DF91CF9138
:101290001F910F91FF90EF900895EF92FF920F939F
:1012A0001F93CF93DF9300D01F92CDB7DEB7FC0121
:1012B0002485211121C07C01158687E489838FE371
:1012C0008B83E75AFF4F80818A839701205F3F4FCE
:1012D000399700E410E043E050E0BE016F5F7F4FBC
:1012E000808191810E944F089C01215031092E3F3D
:1012F0003F4F60F0F70114860F900F900F90DF9131
:10130000CF911F910F91FF90EF900895F701958570
:101310009F5F958781508487EFCFCF93DF93EC0158
:101320000E944D098C8590E0DF91CF910895CF9375
:10133000DF93EC010E944D098C85882341F08D8557
:10134000C80FD11D888990E0DF91CF9108958FEF6C
:101350009FEFFACFCF93DF93EC010E944D098C856C
:10136000882369F081508C878D8591E0980F9D8747
:10137000C80FD11D888990E0DF91CF9108958FEF3C
:101380009FEFFACF90E080E008952F923F924F9226
:101390005F926F927F928F929F92AF92BF92CF9205
:1013A000DF92EF92FF920F931F93CF93DF936090A2
:1013B0007E0770907F076114710409F410C1FC016D
:1013C000848095808114910409F409C18B017C010A
:1013D000FB01C480D580C818D908C0917A07D09184
:1013E0007B07C114D104B9F4F70160817181CE018A
:1013F0000E948421EC01009709F4F1C0F80160819A
:101400007181448155810E945321F8018481958125
:10141000C80FD91FE9CFD7FC10C0FC014080518014
:101420005301CE01B2010E948421009709F44CC0FF
:10143000880D991DAC0CBD1CF5CF5E01F7016081D4
:101440007181CE010E9484213C01009739F14C0149
:101450008C1A9D0AA401BE01C5010E945321A80C4B
:10146000B91CF8016081718144815581C5010E94D8
:101470005321F80184819581A80EB91EF701C4811A
:10148000D581C60DD71D80917E0790917F078C0D69
:101490009D1D90937F0780937E07D0CFBE01C5012D
:1014A000DF91CF911F910F91FF90EF90DF90CF9040
:1014B000BF90AF909F908F907F906F905F904F9074
:1014C0003F902F900C946E216A147B0409F487C01E
:1014D00080917C0790917D078A159B0588F4B50162
:1014E0006F5F7F4FCE010E949620009709F477C06E
:1014F00090937B0780937A07B0927D07A0927C0738
:10150000C0917E07D0917F072197D7FD68C04E011B
:10151000F701448055804114510409F460C0A09043
:101520007E07B0907F07A114B10409F458C0A41439
:10153000B50408F454C0CA15DB0520F04501F1E0FC
:101540008F1A910860907A0770907B07C301CFEFE4
:10155000DFEF1301280C391C2816390688F0F70133
:10156000608171810E948421009751F09C012619AD
:1015700037098216930608F49E010196E901ECCF23
:10158000D7FD2DC04C0E5D1EC301840D951DA50118
:1015900044195509BC018C0D9D1D0E945C21809150
:1015A0007E0790917F078C0D9D1D90937F07809300
:1015B0007E0720917A0730917B07820F931FFC01F1
:1015C000108280917A0790917B07F8016081718188
:1015D000448155818C0F9D1F0E94532195CFDF912F
:1015E000CF911F910F91FF90EF90DF90CF90BF9020
:1015F000AF909F908F907F906F905F904F903F90B3
:101600002F9008950F931F93CF93DF93EC01888160
:101610009981009759F02A813B812617370730F0CE
:1016200081E0DF91CF911F910F9108958B016F5F42
:101630007F4F0E949620009759F0998388831B83DF
:101640000A832C813D81232B59F7FC011082E8CFBE
:1016500080E0E7CFEF92FF920F931F93CF93DF933A
:101660006115710541F480E0DF91CF911F910F91D9
:10167000FF90EF90089541155105B1F07B01EC0109
:101680000C811D81040F151FB8010E94020B8823D5
:1016900051F3288139818C819D81B701820F931F7D
:1016A0000E946E211D830C8381E0DECFFB0101903F
:1016B0000020E9F73197AF01461B570B0C942A0B1A
:1016C00042E050E062E771E00C9406080F931F932C
:1016D000CF93DF93EC01FB014481558160817181DF
:1016E0000E9406088C01CE010E94600B800F911FA2
:1016F000DF91CF911F910F9108950F931F93CF9377
:10170000DF938C01EB01FC01808191810097E1F076
:101710006881798161157105A9F0428153812C811D
:101720003D814217530770F00E946E218C819D818C
:10173000F801958384831D821C82DF91CF911F91D4
:101740000F9108950E940D2088819981F80191835D
:1017500080838A819B81938382838C819D81958301
:101760008483198218821B821A82E5CFCF93DF937C
:10177000EC0188819981009711F00E940D20198257
:1017800018821D821C821B821A82DF91CF910895DC
:10179000EF92FF920F931F93CF93DF93EC017B01A6
:1017A0008A01BA010E94020B81110BC0CE010E9476
:1017B000B60BCE01DF91CF911F910F91FF90EF906B
:1017C00008951D830C83B701888199810E946E2141
:1017D000F0CFFB0101900020E9F73197AF01461BE4
:1017E000570B0C94C80B0F931F93CF93DF93CDB778
:1017F000DEB762970FB6F894DEBF0FBECDBF8C0187
:10180000CB01F80111821082138212821582148298
:101810004AE0BE016F5F7F4F0E94431BBE016F5FB6
:101820007F4FC8010E94E90B62960FB6F894DEBFA5
:101830000FBECDBFDF91CF911F910F910895CF9330
:10184000DF93EC01FB018617970749F060817181F6
:101850006115710541F0448155810E94C80BCE018C
:10186000DF91CF9108950E94B60BF9CFFC01118250
:1018700010821382128215821482FB0101900020D3
:10188000E9F73197AF01461B570B0C94C80B6F92C9
:101890007F928F929F92AF92BF92CF92DF92EF9200
:1018A000FF920F931F93CF93DF9300D000D000D00F
:1018B0001F92CDB7DEB75C018B01DC0113961C9241
:1018C0001E92129788EE93E0A0E0B0E0F5018483C9
:1018D0009583A683B78380E491E09183808335016B
:1018E000F0E56F0E711C89E697E0D3018D939C9310
:1018F0007501B2E5EB0EF11C64E771E0C7010E94CF
:10190000360C4501E8E58E0E911C82E0D4018C93E3
:101910000115110509F44DC0B801C7010E94E90B7A
:101920008091160190911701A091180189839A83E3
:10193000AB8386E48E83D401EC91EC0FFD2FF11D77
:1019400081818F8381E090E0F50197878687EA5A4D
:10195000FF4F00811181D7012D913C9182E0C82E6B
:10196000D12CFE0134967F0142E050E0BE016A5F57
:101970007F4FD3018D919C910E948A068C81882390
:10198000E1F08FEFF401808327960FB6F894DEBF65
:101990000FBECDBFDF91CF911F910F91FF90EF90C0
:1019A000DF90CF90BF90AF909F908F907F906F907F
:1019B0000895C7010E94B60BB3CFF501E75AFF4F58
:1019C0008D818083D5011C961C92DECFFC01808125
:1019D0009181009711F00C940D200895CF93DF931F
:1019E000EC0180E491E099838883CE010E9418097C
:1019F000CE018E5A9F4FDF91CF910C94E60CAF929F
:101A0000BF92CF92DF92EF92FF920F931F93CF93EB
:101A1000DF9300D000D0CDB7DEB75C0182E58B83C9
:101A2000D5011F96ED91FC9150970481158120817D
:101A3000318142E0C42ED12CFE0131967F0141E07C
:101A400050E0BE016D5F7F4F1C968D919C910E946E
:101A50008A068A81D5011E968C931E971F960D913A
:101A60001C910115110531F0C8010E94E60CC80156
:101A70000E940D20F501108A17868981811102C00C
:101A800081E0818B32E7F32EF982D5011E968C918D
:101A90001E978A8301E010E09E012D5F3F4F42E0D8
:101AA00050E0BE016F5F7F4F1C968D919C910E940C
:101AB0004F088B81813039F464E670E080E090E07B
:101AC0000E944705E1CF87E58B83F50186858C83EE
:101AD00002E010E09E012F5F3F4F42E050E0BE0168
:101AE0006D5F7F4F848595850E944F08898190E0C6
:101AF000982F88272A81820F911D0F900F900F90A9
:101B00000F90DF91CF911F910F91FF90EF90DF9099
:101B1000CF90BF90AF900895EF92FF920F931F93D5
:101B2000CF93DF93CDB7DEB7CA55D1090FB6F8947E
:101B3000DEBF0FBECDBF1C821B8288EE93E0A0E00B
:101B4000B0E08D839E83AF83B8878EE2E82E81E07C
:101B5000F82EFA82E98289E697E09E878D871A8AB5
:101B60001B8A1C8A65E771E0CE018B5A9F4F0E9449
:101B7000360CCE0101960E94640886E090E00E9437
:101B8000711F8C01FC011182108213821282158256
:101B90001482BE016B5A7F4F0E941F0C198B088B59
:101BA000CE018B5A9F4F0E94E60C68E771E0CE0190
:101BB0008B5A9F4F0E94360C6FE971E08889998992
:101BC0000E94560B6B964EAD5FAD6B9767966EADF0
:101BD0007FAD6797888999890E942A0BCE018B5A1D
:101BE0009F4F0E94E60CCE0101960E94FF0C8C01D3
:101BF000FA82E982CE0101960E94640881E0012BFD
:101C000009F080E0C65ADF4F0FB6F894DEBF0FBE72
:101C1000CDBFDF91CF911F910F91FF90EF9008956D
:101C20001F920F920FB60F9211248F939F93809162
:101C3000E1009091E100937F9093E10083FF0FC05A
:101C40001092E90091E09093EB001092EC0092E387
:101C50009093ED001092790698E09093F00082FF47
:101C600022C093E09093E9009091F200992319F03B
:101C70009AE39093E80090916A06992341F090913D
:101C80006A06915090936A06911101C05D9A9091F5
:101C90007806992341F090917806915090937806B8
:101CA000911101C0289A84FF18C08091E2008E7EB5
:101CB00081608093E2008091E1008F7E8093E1005B
:101CC00080916B068E7E806180936B069F918F91D1
:101CD0000F900FBE0F901F90189580FFF7CF809147
:101CE000E2008E7E80618093E2008091E1008E7E32
:101CF0008093E10080916B068E7E8160E5CF1F921C
:101D00000F920FB60F921124CF92DF92EF92FF92B3
:101D10000F931F932F933F934F935F936F937F93F3
:101D20008F939F93AF93BF93EF93FF93CF93DF93E3
:101D3000CDB7DEB76C97DEBFCDBF1092E9008091C2
:101D4000E80083FF25C068E0CE0145960E9411039C
:101D500082EF8093E8008D8987FF39C09091E80079
:101D600090FFFCCF982F907609F034C19E894F895F
:101D7000588D2F89F88C911131C0803861F5809190
:101D800069068093F1001092F1008EEF8093E800D5
:101D90006C960FB6F894DEBF0FBECDBFDF91CF912A
:101DA000FF91EF91BF91AF919F918F917F916F9133
:101DB0005F914F913F912F911F910F91FF90EF9065
:101DC000DF90CF900F900FBE0F901F9018959EEF51
:101DD0009093E800C7CF1092F100D5CF913059F41D
:101DE0008111D3CF4130510581F6809169068D7FF5
:101DF00080936906CACF933049F48111C6CF413030
:101E0000510519F6809169068260F2CF953041F450
:101E10008091E80080FFFCCF20682093E300B5CFDD
:101E2000963009F0A9C00B8D1C8D22E01092E900BC
:101E30001092670610926606F2122EC01092650686
:101E4000109264060E94E0021F8299E09983FA8250
:101E500091E09E8390EA98879AEF99872091660691
:101E600030916706275F3F4F3C832B838D83109211
:101E7000E9001092670610926606109365060093BB
:101E8000640649E050E0BE016F5F7F4F80E00E9432
:101E9000BA020E94E00279CF1093650600936406AF
:101EA0000E94C401DC0112960D911C9101151105CF
:101EB00009F451C1D801ED91FC910480F581E02D28
:101EC000BE016B5E7F4FC8010995009709F03EC1C6
:101ED000F80100851185EACFF3E0FF120EC08F896B
:101EE000882309F440C0823061F440E86BE08DEA59
:101EF00092E00E948702811148CF81E28093EB003B
:101F000047CF813029F440E86BE081EA92E0F1CFDD
:101F1000833099F70E94C401DC011296ED90FC9089
:101F20008E010F5F1F4F6801E114F10479F0D701B2
:101F3000ED91FC910680F781E02DB801C70109956C
:101F4000080F111DF701E084F184EECFD8011C9237
:101F5000F60101900020E9F73197BF016C197D0966
:101F600040E0C601C6CF6BE872E0FB01449150E04F
:101F700080E80E94BA0209CF973009F4BECF9830AA
:101F800021F481E08093F10000CF993009F0FDCE7B
:101F9000837009F0B2CFE4E2F1E081E031E096E352
:101FA0002191222371F08093E9003093EB00DF014F
:101FB00011972C912093EC009093ED008F5F873068
:101FC00079F78EE78093EA001092EA008F89809378
:101FD0007906DBCE8B8D9C8D1092E90010926706FE
:101FE000109266069093650680936406898D811130
:101FF00092C08E899D89913A49F4813209F07DCF52
:1020000047E050E064E071E080E0B3CF913209F046
:1020100074CF833269F48F89988DB0E0A0E080930B
:10202000000190930101A0930201B0930301ADCE92
:10203000803269F48091E80082FFFCCF67E084E0A1
:1020400091E00E9411038BEF8093E8009ECE8232D4
:1020500009F09BCE8F8980930B01EEEFFFE785910E
:1020600094918B3F9C4D51F1E0E0F8E080910401A8
:1020700090910501A0910601B0910701803B944029
:10208000A105B105F1F480910B0180FD1AC0EE3F6E
:102090008AE0F80789F587E797E791838083809145
:1020A00060008093680688E19BE00FB6F894A895DD
:1020B000809360000FBE9093600067CEEEEFFAE071
:1020C000D5CF808191818737974709F05ECEA8955B
:1020D00080916000886180936000809168068093A1
:1020E0006000EE3F2AE0F20789F08091FE0A9091AD
:1020F000FF0A9183808349CE808191818737980739
:1021000051F29093FF0A8093FE0AC5CF1092FF0A06
:102110001092FE0A3ACE0E94C401DC0112960D9183
:102120001C910115110509F4E8CED801ED91FC913F
:102130000190F081E02DBE016B5E7F4FC8010995D3
:10214000811123CEF80100851185EBCF18161906F1
:102150000CF41BCED2CEF1E0FF12BECE6FE872E0DF
:1021600004CF1F920F920FB60F9211242F933F931B
:102170004F935F936F937F938F939F93AF93BF938F
:10218000EF93FF938CEC96E00E94C103FF91EF91D7
:10219000BF91AF919F918F917F916F915F914F917F
:1021A0003F912F910F900FBE0F901F9018951F9287
:1021B0000F920FB60F9211242F938F939F93EF934B
:1021C000FF93E091DC06F091DD068081E091E2066C
:1021D000F091E30682FD1BC090818091E5068F5F40
:1021E0008F732091E606821741F0E091E506F0E05A
:1021F000E453F94F958F8093E506FF91EF919F91FE
:102200008F912F910F900FBE0F901F901895808186
:10221000F4CF1F920F920FB60F9211242F933F937A
:102220008F939F93AF93BF9380910D0290910E0275
:10223000A0910F02B091100230910C0223E0230F05
:102240002D3758F50196A11DB11D20930C028093E6
:102250000D0290930E02A0930F02B0931002809192
:10226000110290911202A0911302B09114020196F2
:10227000A11DB11D8093110290931202A09313022D
:10228000B0931402BF91AF919F918F913F912F9185
:102290000F900FBE0F901F90189526E8230F0296FF
:1022A000A11DB11DD2CFEAE7F6E01382128288EEBB
:1022B00093E0A0E0B0E084839583A683B78322E512
:1022C00031E0318320832FEF3FEF35872487ECEC1B
:1022D000F6E01382128284839583A683B78384E613
:1022E00091E0918380838DEC90E0958784878CECDE
:1022F00090E09787868788EC90E0918B808B89ECC3
:1023000090E0938B828B8AEC90E0958B848B8EECA3
:1023100090E0978B868B118E128E138E148EA9E609
:10232000B7E0B093CB06A093CA061C921696FC9316
:10233000EE93159717961C92179718961C9218975C
:102340001A96FC93EE93199764E771E080E897E0A2
:102350000E94360C64E771E08AE797E00E94360C31
:1023600064E771E084E797E00C94360CCF93DF9339
:10237000CDB7DEB7C45CD1090FB6F894DEBF0FBE8F
:10238000CDBF789484B5826084BD84B5816084BDFE
:1023900085B5826085BD85B5816085BD80916E0003
:1023A000816080936E001092810080918100826034
:1023B0008093810080918100816080938100809171
:1023C0008000816080938000809191008260809382
:1023D00091008091910081608093910080919000A4
:1023E0008160809390008091C10084608093C100DF
:1023F0008091C10082608093C1008091C1008160A2
:102400008093C1008091C30081608093C30080915C
:10241000C00082608093C0008091C2008160809380
:10242000C20080917A00846080937A0080917A0063
:10243000826080937A0080917A00816080937A0034
:1024400080917A00806880937A00109279061092C9
:10245000690610926B068091D70081608093D70047
:1024600080EA8093D80089B5806189BD89B5826092
:1024700089BD09B400FEFDCF61E070E080E090E02E
:102480000E9447058091D8008F7C80618093D8009E
:102490008091E000807F8093E0008091E1008E7E5B
:1024A0008093E1008DE08093E200559A209A10928B
:1024B000360610923706109238061092390610929E
:1024C0005C0610925D0610925E0610925F061092F6
:1024D00060061092610610926206109263061092D6
:1024E0005006109251061092520610925306109206
:1024F00058061092590610925A0610925B061092D6
:1025000054061092550610925606109257061092D5
:10251000420610924306109244061092450684E645
:1025200090E0A0E0B0E08093150290931602A09393
:102530001702B093180284EF91E0A0E0B0E080931E
:102540003E0690933F06A0934006B09341068093C9
:102550003A0690933B06A0933C06B0933D068DE966
:1025600093E0A0E0B0E080932E0690932F06A09316
:102570003006B09331068BE490E0A0E0B0E08093A9
:10258000320690933306A0933406B093350682E367
:1025900090E0A0E0B0E080934C0690934D06A093AD
:1025A0004E06B0934F0680E590E0A0E0B0E0809347
:1025B000470690934806A0934906B0934A061092A6
:1025C0002A0610922B0610922C0610922D061092BD
:1025D0001A021092190260E084E00E94F10461E0A6
:1025E00084E00E94C30461E088E00E94F10461E09D
:1025F00087E00E94F10461E082E00E94F10461E062
:102600008AE00E94F10460E08BE00E94F104E09116
:102610007207F0917307A089B18982E08C93A48539
:10262000B5851C92A685B78587E08C93108EA4890A
:10263000B58986E08C93A289B3898C9180618C9353
:10264000A289B3898C9188608C93A289B3898C917B
:1026500080688C930288F389E02D80818F7D808350
:10266000809170078111CEC081E08093700789E668
:1026700097E00E94220668EE73E080E090E00E94FE
:10268000470580916E0790916F07DC01ED91FC91F9
:102690000084F185E02D09951816190644F3FF24EE
:1026A000F39432E3E32E85E0E9E1F1E0DE01A55A9F
:1026B000BF4F01900D928A95E1F7F092710710E0FB
:1026C00000E030E020E045E050E0BE01655A7F4F79
:1026D00089E697E00E944F0880916E0790916F07FE
:1026E000DC01ED91FC910190F081E02D63E0099512
:1026F0006AEF70E080E090E00E9447056BE372E0D3
:1027000080916E0790916F070E941F036AEF70E03F
:1027100080E090E00E94470569E372E080916E07D7
:1027200090916F070E941F0364EF71E080E090E0DA
:102730000E9447056DE272E080916E0790916F07ED
:102740000E941F0364EF71E080E090E00E94470563
:1027500089E697E00E94220685E0EEE1F1E0DE01E5
:10276000119601900D928A95E1F7E092710704E0CD
:1027700010E09E012B543F4F45E050E0BE016F5FDB
:102780007F4F89E697E00E944F088F3F980739F402
:1027900068EE73E080E090E00E94470584CFCB5460
:1027A000DF4F2881C55BD0402111FFCF049709F08E
:1027B000ABC0CA54DF4F2881C65BD0402053330BD7
:1027C00044E6429FC001439F900D1124C954DF4F3E
:1027D0002881C75BD040EAE02E9F800D911D112417
:1027E000805E9140C854DF4F2881C85BD0402053A1
:1027F000330B820F931F90936B0780936A0782E3DA
:10280000809371070E948C0D68E771E0CE01855AB4
:102810009F4F0E94470CCD54DF4F8881C35BD0404F
:102820008F3F99F048E050E061EA71E0CE01855AAF
:102830009F4F0E940608CE01855A9F4F0E94600B51
:10284000CE01855A9F4F0E941809EDE3F2E0E49112
:1028500090917B008E2F880F880F80729F7D892B2F
:1028600080937B00E770E064E0937C0080917A00C5
:10287000806480937A0080917A0086FDFCCF8091FD
:10288000780060917900762F682F072E000C880B56
:10289000990B611571058105910511F00E943A1B94
:1028A0009E012F5F3F4F79018BE00E949A04892B94
:1028B00071F16AEA71E0CE018B549F4F0E94360C91
:1028C0000E948C0D68E771E0C7010E94470C6A9670
:1028D0008FAD6A978F3F49F0BE016B547F4FC701A0
:1028E0000E94660BC7010E941809C7010E94EE0CE6
:1028F000CE018B549F4F0E94E60C68EE73E080E09F
:1029000090E00E944705D0CF84E690E074CF64E762
:1029100071E0CE0185549F4F0E94360C1C821B82B1
:1029200088EE93E0A0E0B0E08D839E83AF83B8870C
:102930008EE291E09A83898389E697E09E878D876E
:102940001A8A1B8A1C8A67EB71E0CE018B549F4F59
:102950000E94360CC7010E94640886E090E00E9445
:10296000711F8C01DC0111961C921E9213961C9211
:102970001E92129715961C921E921497BE016B54CC
:102980007F4F0E941F0C198B088BCE018B549F4FD9
:102990000E94E60C6CEB71E0CE018B549F4F0E94BD
:1029A000360C6FE971E0888999890E94560BC754EB
:1029B000DF4F48815981C95BD040CB54DF4F6881DC
:1029C0007981C55BD040888999890E942A0BCE0104
:1029D0008B549F4F0E94E60CC7010E94FF0CC70159
:1029E0000E948E088B898823D1F0C7010E94DB08E2
:1029F0008A30A9F3CB54DF4F8883C55BD040CA54DB
:102A0000DF4F1882C65BD04041E050E0BE016B54FE
:102A10007F4FCE0185549F4F0E942A0BE0CF8EE25C
:102A200091E09A838983C7010E946408C154DF4FF3
:102A300048815981CF5BD040C554DF4F688179818F
:102A4000CB5BD0408AE797E00E942A0BCE018554E9
:102A50009F4F0E94E60C63EC71E0C7010E94360CA8
:102A600065EC71E0CE018B549F4F0E94360CB7018C
:102A7000CE018B549F4F0E94C509CE018B549F4FAE
:102A80000E94E60CC7010E94E60C67EC71E0C701EA
:102A90000E94360C6BEC71E0CE018B549F4F0E946C
:102AA000360CB701CE018B549F4F0E94C509CE0151
:102AB0008B549F4F0E94E60CC7010E94E60C63EC0A
:102AC00071E0C7010E94360C6DEC71E0CE018B54B1
:102AD0009F4F0E94360CB701CE018B549F4F0E942E
:102AE000C509CE018B549F4F0E94E60CC7010E947E
:102AF000E60C6FEC71E0C7010E94360C40917E0736
:102B000050917F0760917A0770917B07C7010E94FF
:102B10002A0B811103C0C7010E94B60B6AE971E05C
:102B2000C7010E94560B4D815E8169817A8180E8E0
:102B300097E00E942A0BC7010E94E60CCE01855A3D
:102B40009F4F0E94EE0C94E6492E512C612C712C63
:102B500020E0C22E20E0D22E3324339487E1282EA9
:102B600064E771E084E797E00E94E90B84E00E944B
:102B70009A04892BF1F58091600690916106A091ED
:102B80006206B0916306892B8A2B8B2B09F0F4C166
:102B900080915C0690915D06A0915E06B0915F0603
:102BA000892B8A2B8B2B09F0E7C1809158069091D5
:102BB0005906A0915A06B0915B06892B8A2B8B2B64
:102BC00009F0DAC18091540690915506A0915606FD
:102BD000B0915706892B8A2B8B2B09F0CDC10E940F
:102BE000FF056093500670935106809352069093B0
:102BF00053068091500690915106A0915206B091D3
:102C00005306892B8A2B8B2B09F452C01092500645
:102C10001092510610925206109253060E94EB1A1F
:102C2000A30192010E945F1E00914C0610914D0677
:102C300020914E0630914F06601771078207930767
:102C400008F0A3C130924B060E94EB1AA301920137
:102C50000E945F1E00914706109148062091490688
:102C600030914A06601771078207930708F090C1F8
:102C7000309246060E94EB1A29E532E040E050E02F
:102C80000E945F1E68537F4F8F4F9F4F6093420695
:102C90007093430680934406909345060E94FF0577
:102CA000609354067093550680935606909357068A
:102CB0008090540690905506A0905606B090570606
:102CC00081149104A104B104B1F10E94FF056819B7
:102CD00079098A099B0900914206109143062091C7
:102CE000440630914506061717072807390718F5D7
:102CF00010925406109255061092560610925706DE
:102D00001092420610924306109244061092450615
:102D10000E94FF05609360067093610680936206CF
:102D2000909363068091460661E0882309F433C1DD
:102D300087E00E94C3048090600690906106A09096
:102D40006206B090630681149104A104B10471F18C
:102D50000E94FF05681979098A099B0900913E06BE
:102D600010913F0620914006309141060617170743
:102D700028073907D8F41092600610926106109265
:102D80006206109263068091460660E0882309F48B
:102D900004C187E00E94C3040E94FF0560935806A7
:102DA0007093590680935A0690935B06809058065C
:102DB00090905906A0905A06B0905B068114910439
:102DC000A104B10409F451C00E94FF0568197909F2
:102DD0008A099B0900913A0610913B0620913C0616
:102DE00030913D060617170728073907F0F51092AE
:102DF00058061092590610925A0610925B0680905F
:102E0000320690903306A0903406B090350680913B
:102E10004B06882309F4C3C080913606909137068B
:102E2000A0913806B09139060196A11DB11D80937D
:102E3000360690933706A0933806B093390661E0C2
:102E400088E00E94C304C501B4010E94470560E008
:102E500088E00E94C3040E94FF0560935C067093A3
:102E60005D0680935E0690935F0620915C0630912C
:102E70005D0640915E0650915F06CF53DF4F288379
:102E800039834A835B83C15CD040232B242B252BC1
:102E900009F44CC180902E0690902F06A090300629
:102EA000B090310638EC831A9108A108B1080E944D
:102EB000FF05CF53DF4F288139814A815B81C15C97
:102EC000D040621B730B840B950B86169706A806E1
:102ED000B90608F02BC184E00E949A04892B09F4FA
:102EE00025C110925C0610925D0610925E0610924B
:102EF0005F066091800770918107C7010E94470CAF
:102F00006A968FAD6A978F3F09F40DC10FE112E009
:102F1000812C912C540180912A0690912B06A0912E
:102F20002C06B0912D0688169906AA06BB0608F055
:102F300041C0B801CE01855A9F4F0E94360CBE0198
:102F4000655A7F4FC7010E94660B90E080E0F80150
:102F5000E80FF91F1082019687319105C1F7CE0164
:102F6000855A9F4F0E94E60C3FEF831A930AA30AEB
:102F7000B30A095E1F4FCFCF109250061092510630
:102F8000109252061092530634CE10924B065CCE2D
:102F9000109246066FCE82E0CCCE82E0FBCE61E09E
:102FA0008AE00E94C304C501B4010E94470560E0A5
:102FB0008AE04FCF60911B0270911C0280911D022C
:102FC00090911E02C554DF4F19821882CB5BD0400E
:102FD000C354DF4F19821882CD5BD040C154DF4FFC
:102FE00019821882CF5BD0408E01055A1F4F22E014
:102FF00044E00E94811A009709F42AC2BC01CE0164
:1030000085549F4F0E94E90B64E771E0CE018B5419
:103010009F4F0E94360C8091460661E070E081115E
:1030200002C070E060E0CE01855A9F4F0E94F30B12
:10303000BE01655A7F4FCE018B549F4F0E947D0B7E
:10304000CE01855A9F4F0E94E60C0E94FF050E9408
:10305000D11D20E030E04AE754E40E94F91E60935D
:103060001B0270931C0280931D0290931E026D96AA
:103070001FAE1EAE6D976F961FAE1EAE6F97A196D8
:103080001FAE1EAEA197BE0165547F4FCE01855A7B
:103090009F4F0E941F0C49E050E062EF71E0CE01AB
:1030A000855A9F4F0E942A0B811105C0CE01855A77
:1030B0009F4F0E94B60BC754DF4F48815981C95BAF
:1030C000D040CB54DF4F68817981C55BD040CE01C1
:1030D000855A9F4F0E942A0B811105C0CE01855A47
:1030E0009F4F0E94B60BBE01655A7F4FC7010E94D9
:1030F000660BCE01855A9F4F0E94E60CC7010E94C5
:10310000180910922A0610922B0610922C06109283
:103110002D06CE018B549F4F0E94E60CCE018554A4
:103120009F4F0E94E60CC7010E94EE0C8091500652
:1031300090915106A0915206B0915306892B8A2B8B
:103140008B2B89F58091600690916106A0916206B3
:10315000B0916306892B8A2B8B2B29F5809154061D
:1031600090915506A0915606B0915706892B8A2B4F
:103170008B2BC9F48091580690915906A0915A065C
:10318000B0915B06892B8A2B8B2B69F480915C06AE
:1031900090915D06A0915E06B0915F06892B8A2B07
:1031A0008B2B09F496C10E94FF050E94D11D20E0DF
:1031B00030E04AE754E40E94F91E60931B027093CA
:1031C0001C0280931D0290931E02870122E044E0BE
:1031D0000E94811AFC0101900020E9F73197AF01AC
:1031E000481B590BBC0184E797E00E942A0B6AEF49
:1031F00071E084E797E00E94560B84E00E949A04F5
:103200006CEF71E0892B11F06EEF71E084E797E0CD
:103210000E94560B6AEF71E084E797E00E94560B1C
:103220008BE00E949A0460E072E0892B11F46EEF4B
:1032300071E084E797E00E94560B6AEF71E084E743
:1032400097E00E94560B80914B06882309F406C133
:103250008091540690915506A0915606B09157065C
:10326000892B8A2B8B2B31F062E072E084E797E0A8
:103270000E94560B8091600690916106A0916206B3
:10328000B0916306892B8A2B8B2B31F064E072E0BE
:1032900084E797E00E94560B80915806909159065A
:1032A000A0915A06B0915B06892B8A2B8B2B31F0AB
:1032B00066E072E084E797E00E94560B80915C061E
:1032C00090915D06A0915E06B0915F0668E072E0A5
:1032D000892B8A2B8B2B09F0C3C06AEF71E084E73E
:1032E00097E00E94560B60914206709143068091D0
:1032F0004406909145062AE0A7010E944E1BF70163
:1033000001900020E9F73197AF014E195F09B7012D
:1033100084E797E00E942A0B6AEF71E084E797E068
:103320000E94560B80914606882309F49EC081E0D6
:1033300090E090931A02809319024AE0B7018091BD
:10334000190290911A020E94431BF701019000207C
:10335000E9F73197AF014E195F09B70184E797E0AC
:103360000E942A0B00917807109179070115110529
:1033700009F080C06C961FAE6C9780902A069090E2
:103380002B06A0902C06B0902D06289CC001299CED
:10339000900D1124BE01655A7F4F815E9D4F0E94A2
:1033A0006E214FEF841A940AA40AB40A80922A0666
:1033B00090922B06A0922C06B0922D0658E285160C
:1033C0009104A104B10409F07AC060918007709162
:1033D0008107C7010E94470C6A968FAD6A978F3F9D
:1033E00009F46AC00FE112E0812C912C5401809104
:1033F0002A0690912B06A0912C06B0912D068816D6
:103400009906AA06BB0608F04CC0B801CE018B5441
:103410009F4F0E94360CBE016B547F4FC7010E9424
:10342000660B90E080E0F801E80FF91F108201962A
:1034300087319105C1F7CE018B549F4F0E94E60C56
:103440008FEF881A980AA80AB80A095E1F4FCFCFD3
:10345000CE0185549F4F0E94B60BD6CD6AE072E034
:1034600084E797E00E94560B38CF10921A02109210
:10347000190263CF0631110510F006E110E06091EA
:10348000740770917507A801CE01855A9F4F0E945D
:103490007521EBE5F0E0EC0FFD1FE00FF11F10824E
:1034A0006CCFC7010E94180910922A0610922B06B1
:1034B00010922C0610922D06C7010E94EE0C60910E
:1034C00015027091160280911702909118020E94C5
:1034D0004705C114D10409F443CB0E94AD038823EE
:1034E00009F43ECB0E94000039CB84E797E00E94AC
:1034F000E60C8AE797E00E94E60C80E897E00C94DF
:10350000E60CEF920F931F93CF93DF93E80134E023
:1035100047FD34E1042E000C550B57FF03C05195B5
:1035200041955109E32E022F242FAE010E948A1BE0
:10353000CE01DF91CF911F910F91EF9008958F925F
:103540009F92AF92BF92CF92DF92EF92FF92CF9372
:10355000DF93EC01688179818A819B816115710516
:103560008105910521F464E279ED8BE597E02DE189
:1035700033EF41E050E00E945F1E49015A019B0178
:10358000AC01A7EAB1E40E947E1E6B017C01ACEEA7
:10359000B4EFA50194010E948C1EC60ED71EE81E32
:1035A000F91EF7FE06C081E0C81AD108E10880E8DC
:1035B000F80AC882D982EA82FB82C701B6019F77E6
:1035C000DF91CF91FF90EF90DF90CF90BF90AF90C1
:1035D0009F908F9008958F929F92AF92BF92CF92BB
:1035E000DF92EF92FF9260910C0170910D0180913A
:1035F0000E0190910F01611571058105910521F46E
:1036000064E279ED8BE597E02DE133EF41E050E0A6
:103610000E945F1E49015A019B01AC01A7EAB1E477
:103620000E947E1E6B017C01ACEEB4EFA5019401FB
:103630000E948C1EC60ED71EE81EF91EF7FE06C09D
:1036400081E0C81AD108E10880E8F80AC0920C01AC
:10365000D0920D01E0920E01F0920F01C701B60168
:103660009F77FF90EF90DF90CF90BF90AF909F90AB
:103670008F90089560930C0170930D0180930E015B
:1036800090930F010895BB274A3031F4992322F417
:10369000BDE2909581959F4F0C94711BBB27FA0159
:1036A000A62F6217710581059105330B30FB66F07B
:1036B000AA27660F771F881F991FAA1FA21710F04D
:1036C000A21B63953850A9F7A05DAA3308F0A95D45
:1036D000A19336F7B111B1931082CA010C94C11DA8
:1036E000BB27FB015527AA27880F991FAA1FA417DC
:1036F00010F0A41B83955051B9F7A05DAA3308F0D0
:10370000A95DA193009779F7B111B1931192CB0103
:103710000C94C11DA9E0B0E0E0E9FBE10C94971E18
:103720006A01F22EB02E102FFBE3AF2EA01608F484
:103730001BE31F5F012F27E0AE014F5F5F4F0E9429
:10374000E91CBC018981982F9970913009F43FC020
:103750009BE2E1FC04C09E2D9170E0FC3AC05E2D1E
:103760005071E82FE87083FF46C084E0911101C0DA
:1037700083E0EF2DE81B8F1508F0E0E0D6018E2FD7
:1037800020E2552351F1992329F0D6019C93C601DB
:1037900001966C0196012D5F3F4FE2FE24C08EE43E
:1037A000D6018C9391E411969C93119712968C9369
:1037B000D9018E2F90E281111BC0E20FF32FF11D72
:1037C00010828EEF9FEF2996ECE00C94B31E9DE2E1
:1037D000C6CF90E2C4CF2D9381508111FCCFCE0E85
:1037E000D11CE0E0D0CF8EE6D6018C9391E6DBCF02
:1037F0009D938150E0CF482F447082FF3DC084E00C
:10380000911101C083E08F1510F4EF2DE81BD60154
:103810008E2F20E2552309F1992329F0D6019C939C
:10382000C60101966C0196012D5F3F4FE2FE1BC061
:1038300089E4D6018C938EE411968C93119786E4DB
:1038400012968C93D9018E2F90E2882309F4B5CF7C
:103850009D938150FACF2D9381508111FCCFCE0ED4
:10386000D11CE0E0D9CF89E6D6018C938EE6119683
:103870008C93119786E6E4CF9B0177FF02C030E07E
:1038800020E0A1E0B0E0911102C0B0E0A0E0F901B9
:103890003196AE0FBF1F8B2C912CBB2009F461C059
:1038A0005401EFEFAE1ABE0AAA0DBB1DFA161B0695
:1038B00019F014F04F2D4A1B511188C0E3FC59C078
:1038C0007601A42FB0E2A1114FC0C40ED11C9923E0
:1038D00009F45BC040E0D6011196F60190836D01BA
:1038E000552309F448C0012F060F9A81582F5071B3
:1038F00084FF03C0913309F4015010160CF047C047
:10390000093008F008E0EEE2FE2E5B01A01AB108D3
:1039100085019194819491082F3F320729F4D601B3
:10392000FC92F60131966F016217730794F102174A
:1039300013077CF5DB01A21BB30BAA24A394B12CC3
:10394000AC0EBD1EAA0DBB1D11968C9121503109E4
:10395000D601119628153905F4F0F60180836D0122
:10396000DBCFB12CA12CA0CFF701B1937F01A150E7
:10397000AACF9111B0CFD601942F50E302C05D932E
:1039800091509111FCCFC40ED11C40E0ACCF01E0AE
:10399000BACF80E3DBCF6217730731F4963388F434
:1039A000953311F4552369F0F6018083FD01842FCE
:1039B00090E2811108C0A40FB11D1C9290E080E03C
:1039C00002CF81E3F1CF91938150F3CF911183CF57
:1039D0008ACF283008F027E03327DA01990F311D0C
:1039E00087FD916000966105710539F432602E5FA4
:1039F0003D9330E32A95E1F708959F3F30F08038FA
:103A00007105610509F03C5F3C5F3D93913008F022
:103A10008068911DDF93CF931F930F93FF92EF92D6
:103A2000192F987F9695E92F96959695E90FFF2780
:103A3000EA5FFE4F99273327EE24FF24A701E70111
:103A400005900894079428F4360FE71EF81E491FC6
:103A5000511D660F771F881F991F0694A1F70590C7
:103A6000079428F4E70EF81E491F561FC11D770F53
:103A7000881F991F661F0694A1F70590079428F4E4
:103A8000F80E491F561FC71FD11D880F991F661FAB
:103A9000771F0694A1F70590079420F4490F561F4D
:103AA000C71FD81F990F661F771F881F0694A9F795
:103AB00084911095177041F0D695C7955795479505
:103AC000F794E7941A95C1F7ECEAF0E06894159042
:103AD000159135916591959105907FE27395E11867
:103AE000F10A430B560BC90BD009C0F7E10CF11ECC
:103AF000431F561FC91FD01D7EF4703311F48A95E1
:103B0000E6CFE894015030F0080F0AF400270217BE
:103B100008F4202F2395022F7A3328F079E37D9340
:103B20002A95E9F710C07D932A9589F60694979512
:103B30006795379517951794E118F10A430B560BC3
:103B4000C90BD00998F023957E9173957A3308F0CC
:103B500070E37C932013B8F77E9170617D9330F011
:103B6000839571E37D9370E32A95E1F71124EF903B
:103B7000FF900F911F91CF91DF91992787FD90952D
:103B80000895DC01FC01672F71917723E1F73297EB
:103B900004C07C916D9370836291AE17BF07C8F328
:103BA0000895E89409C097FB3EF490958095709530
:103BB00061957F4F8F4F9F4F9923A9F0F92F96E979
:103BC000BB279395F695879577956795B795F111EE
:103BD000F8CFFAF4BB0F11F460FF1BC06F5F7F4F8B
:103BE0008F4F9F4F16C0882311F096E911C077239D
:103BF00021F09EE8872F762F05C0662371F096E8A6
:103C0000862F70E060E02AF09A95660F771F881F74
:103C1000DAF7880F9695879597F9089597F99F6732
:103C200080E870E060E008959FEF80EC0895002444
:103C30000A941616170618060906089500240A9411
:103C400012161306140605060895092E0394000C97
:103C500011F4882352F0BB0F40F4BF2B11F460FF26
:103C600004C06F5F7F4F8F4F9F4F089557FD90584F
:103C7000440F551F59F05F3F71F04795880F97FB30
:103C8000991F61F09F3F79F08795089512161306EA
:103C90001406551FF2CF4695F1DF08C01616170619
:103CA0001806991FF1CF869571056105089408954E
:103CB000E894BB2766277727CB0197F90895052E4F
:103CC00097FB1EF400940E94761E57FD07D00E94B9
:103CD000C81E07FC03D04EF40C94761E50954095F8
:103CE000309521953F4F4F4F5F4F089590958095A8
:103CF000709561957F4F8F4F9F4F08950E94EA1EE8
:103D0000A59F900DB49F900DA49F800D911D11242F
:103D10000895B7FF0C947E1E0E947E1E821B930B9B
:103D200008952F923F924F925F926F927F928F925F
:103D30009F92AF92BF92CF92DF92EF92FF920F933A
:103D40001F93CF93DF93CDB7DEB7CA1BDB0B0FB644
:103D5000F894DEBF0FBECDBF09942A883988488801
:103D60005F846E847D848C849B84AA84B984C88497
:103D7000DF80EE80FD800C811B81AA81B981CE0F8E
:103D8000D11D0FB6F894DEBF0FBECDBFED01089573
:103D9000A1E21A2EAA1BBB1BFD010DC0AA1FBB1F4F
:103DA000EE1FFF1FA217B307E407F50720F0A21BC1
:103DB000B30BE40BF50B661F771F881F991F1A942E
:103DC00069F760957095809590959B01AC01BD0158
:103DD000CF010895A29FB001B39FC001A39F700DB2
:103DE000811D1124911DB29F700D811D1124911D03
:103DF00008950E940D1F0C94251E0E941E1E58F04F
:103E00000E94171E40F029F45F3F29F00C940E1E0B
:103E100051110C94591E0C94141E0E94361E68F306
:103E20009923B1F3552391F3951B550BBB27AA2773
:103E300062177307840738F09F5F5F4F220F331FAD
:103E4000441FAA1FA9F335D00E2E3AF0E0E832D075
:103E500091505040E695001CCAF72BD0FE2F29D078
:103E6000660F771F881FBB1F261737074807AB074A
:103E7000B0E809F0BB0B802DBF01FF2793585F4FBF
:103E80003AF09E3F510578F00C940E1E0C94591E8A
:103E90005F3FE4F3983ED4F3869577956795B795A1
:103EA000F7959F5FC9F7880F911D9695879597F9AC
:103EB0000895E1E0660F771F881FBB1F6217730725
:103EC0008407BA0720F0621B730B840BBA0BEE1F3A
:103ED00088F7E0950895EE0FFF1F0590F491E02D0F
:103EE00009940F931F93CF93DF938230910510F4C1
:103EF00082E090E0E0918807F091890730E020E0CF
:103F0000B0E0A0E0309799F42115310509F44AC0DA
:103F1000281B390B24303105D8F58A819B81611526
:103F2000710589F1FB0193838283FE0111C04081F9
:103F300051810281138148175907E0F0481759074A
:103F400099F4109761F012960C93129713961C93A4
:103F50003296CF01DF91CF911F910F910895009379
:103F6000880710938907F4CF2115310551F04217C6
:103F7000530738F0A901DB019A01BD01DF01F80107
:103F8000C1CFEF01F9CF9093890780938807CDCFF8
:103F9000FE01E20FF31F819391932250310939837F
:103FA0002883D7CF2091860730918707232B41F4B0
:103FB00020911201309113013093870720938607D7
:103FC00020911001309111012115310541F42DB7D7
:103FD0003EB74091140150911501241B350BE0911F
:103FE0008607F0918707E217F307A0F42E1B3F0B1B
:103FF0002817390778F0AC014E5F5F4F241735075B
:1040000048F04E0F5F1F50938707409386078193B8
:1040100091939FCFF0E0E0E09CCFCF93DF930097A8
:10402000E9F0FC01329713821282A0918807B091C7
:104030008907ED0130E020E01097A1F42081318163
:10404000820F931F20918607309187072817390721
:1040500009F061C0F0938707E0938607DF91CF9165
:104060000895EA01CE17DF07E8F54A815B819E01DA
:1040700041155105B1F7E901FB83EA834991599153
:10408000C40FD51FEC17FD0761F480819181029662
:10409000840F951FE90199838883828193819B8393
:1040A0008A83F0E0E0E012968D919C91139700973F
:1040B000B9F52D913C911197CD010296820F931F76
:1040C00020918607309187072817390739F63097EE
:1040D00051F51092890710928807B0938707A09333
:1040E0008607BCCFD383C28340815181840F951F43
:1040F000C817D90761F44E5F5F4F88819981480FD7
:10410000591F518340838A819B8193838283211528
:10411000310509F0B0CFF0938907E09388079ECF6F
:10412000FD01DC01C0CF13821282D7CFB0E0A0E046
:10413000ECE9F0E20C94931E8C01009751F4CB0152
:104140000E94711F8C01C801CDB7DEB7E0E10C946D
:10415000AF1EFC01E60FF71F9C0122503109E21748
:10416000F30708F49DC0D901CD91DC911197C617D2
:10417000D70798F0C530D10530F3CE0104978617E4
:10418000970708F3C61BD70B2297C193D1936D9362
:104190007C93CF010E940D20D6CF5B01AC1ABD0AE3
:1041A0004C018C0E9D1EA0918807B0918907512C5F
:1041B000412CF12CE12C109731F5809186079091DC
:1041C00087078815990509F05CC04616570608F060
:1041D00058C08091100190911101009741F48DB762
:1041E0009EB74091140150911501841B950BE8175F
:1041F000F90708F055C0F0938707E0938607F901A7
:1042000071836083A0CF8D919C91119712966C90D1
:10421000129713967C901397A815B90559F56C0160
:1042200042E0C40ED11CCA14DB0420F1AC014A19CF
:104230005B09DA011296159780F0628273825183CE
:104240004083D9016D937C93E114F10471F0D7019F
:104250001396FC93EE93129776CF22968C0F9D1FA8
:10426000F90191838083F301EFCFF0938907E09305
:10427000880769CF4816590608F42C017D01D3013F
:104280009ACFCB010E94711F7C01009749F0AE01CB
:10429000B8010E945321C8010E940D20870153CF0D
:1042A00010E000E050CFFB01DC0102C001900D9254
:1042B00041505040D8F708956817790768F4FB011A
:1042C000DC01E40FF51FA40FB51F02C002900E928F
:1042D00041505040D8F708950C945321FB01DC0164
:1042E00001900D920020E1F70895FB01DC0141509F
:1042F000504048F001900D920020C9F701C01D9276
:1043000041505040E0F70895FB0151915523A9F029
:10431000BF01DC014D9145174111E1F759F4CD0181
:104320000190002049F04D9140154111C9F3FB0166
:104330004111EFCF81E090E00197089511E0CEE5C3
:10434000D1E004C0FE010E946B1F2196CF35D1073A
:06435000C9F7F894FFCF4D
:10435600FFFFFFFF00E10000000000000100000079
:1043660000008A0780007277615858585858585884
:1043760031303000C1808100000000000000F308E9
:104386004303C2090B06BE08DB08C808000000008C
:104396000C060608C2090B068D09AA099709000032
:1043A6000000D8017A05F901EE013F02FD011B026A
:1043B60000000000E203430370032E04A1037F0301
:1043C60093030D0A00726D002F6D6E742F73646176
:1043D600312F61726475696E6F2F7777772F7072E0
:1043E6006F677265737366696C652E74787400FE08
:1043F600005374617274696E6700696E69746961ED
:104406006C697A696E670064617465002B25442DBA
:104416002554005F002F007E547E002D003A002FA9
:104426006D6E742F736461312F61726475696E6F7E
:104436002F7777772F74656D70746573742E747823
:1044460074002C302C302C372C302C0031003000EE
:0C4456003200330034003500370039001C
:00000001FF
